:020000040000FA
:0400000007EF00F016
:100008005F826DED2BF0D3EF25F01250800B1B6E45
:1000180012501224216E11AE14EF00F016EF00F00A
:1000280019EF00F0218019EF00F02150D8B41FEF2C
:1000380000F021EF00F036EF00F02128D8A427EFD8
:1000480000F029EF00F033EF00F0000E0F6E000E05
:10005800106E000E116E000E126E33EF00F0118E4E
:1000680040EF00F0000E0F6E000E106E000E116EC5
:10007800000E126E40EF00F01650800B1B1A16503F
:100088001624206E15AE4BEF00F04DEF00F050EF48
:1000980000F0208050EF00F02050D8B456EF00F068
:1000A80058EF00F06DEF00F02028D8A45EEF00F0C4
:1000B80060EF00F06AEF00F0000E136E000E146E91
:1000C800000E156E000E166E6AEF00F0158E75EFB5
:1000D80000F0000E136E000E146E000E156E000E6A
:1000E800166E2050D8B47BEF00F07DEF00F087EF5C
:1000F80000F02150D8A483EF00F085EF00F093EFD3
:1001080000F087EF00F0000E0F6E000E106E000E6C
:10011800116E000E126E3FEF02F03FEF02F0155025
:100128000F02F3CF26F0F4CF27F026501C6E1D6A7D
:100138001E6A1F6A2750226E236A246A256A145091
:100148001002F3CF26F0F4CF27F026501C26000E1D
:100158001D221E221F2227502226000E232224227F
:10016800252213501102F3CF26F0F4CF27F02650A2
:100178001C26000E1D221E221F2227502226000E9A
:100188002322242225221EC01FF01DC01EF01CC0E1
:100198001DF01C6A13501002F3CF26F0F4CF27F09D
:1001A80026501C2627501D22000E1E22000E1F223C
:1001B80014500F02F3CF26F0F4CF27F026501C2658
:1001C80027501D22000E1E22000E1F221EC01FF0E7
:1001D8001DC01EF01CC01DF01C6A13500F02F3CF87
:1001E80026F0F4CF27F026501C2627501D22000E9B
:1001F8001E22000E1F2215501002F3CF26F0F4CF56
:1002080027F02650222627502322000E2422000EF3
:10021800252214501102F3CF26F0F4CF27F02650F0
:10022800222627502322000E2422000E25221550B4
:100238001102F3CF26F0F4CF27F02650176E27507F
:10024800186E196A1A6A19C01AF018C019F017C07E
:1002580018F0176A17502226185023221950242202
:100268001A5025221CC017F01DC018F01EC019F026
:100278001FC01AF0190E46EF01F0D8901A32193241
:1002880018321732E82E41EF01F017502226185085
:100298002322195024221A5025221EC01FF01DC0E7
:1002A8001EF01CC01DF01C6A205021C017F0186AEF
:1002B8001726000E1822820E1724266EFF0E18200D
:1002C800276E7EEF01F0D890223623362436253665
:1002D8001FAE71EF01F073EF01F074EF01F02280AF
:1002E800D8901C361D361E361F362606D8A027067F
:1002F8007EEF01F024AE83EF01F085EF01F067EFA8
:1003080001F087EF01F0000E206E1FAE8EEF01F0B6
:1003180090EF01F0B8EF01F0FF0E1C14176EFF0EFE
:100328001D14186EFF0E1E14196E7F0E1F141A6E00
:100338001750181019101A10D8B4A5EF01F0A7EF2C
:1003480001F0ABEF01F0010E206EB8EF01F022A032
:10035800B0EF01F0B2EF01F0B8EF01F0010E206E3E
:10036800B8EF01F0B8EF01F02050D8B4BEEF01F0BB
:10037800C0EF01F0E8EF01F0010E2226000E232263
:100388002422252225A0CBEF01F0CDEF01F0E8EFE4
:1003980001F022C017F023C018F024C019F025C0BE
:1003A8001AF01A341A3219321832173217C022F0DA
:1003B80018C023F019C024F01AC025F0264A272AAD
:1003C800E8EF01F0E8EF01F027BEF3EF01F0275066
:1003D80008E12628D8A0F3EF01F0F5EF01F0FFEFD0
:1003E80001F0000E226E000E236E800E246E7F0E2A
:1003F800256E33EF02F027BE0CEF02F0275006E11E
:100408002604D8B00AEF02F00CEF02F018EF02F061
:10041800000E226E000E236E000E246E000E256E56
:10042800000E1B6E33EF02F026C021F0FF0E2216DD
:10043800FF0E23167F0E2416000E251621A027EF87
:1004480002F029EF02F02CEF02F0248E2CEF02F0DC
:10045800D8902130256E33EF02F033EF02F01B50B5
:10046800251222C00FF023C010F024C011F025C0BF
:1004780012F03FEF02F01200000E0D6E000E116E2A
:10048800000E106E000E0F6EF5C00EF0000E036E1B
:10049800000E76EC27F051EF02F00D50D8B457EF6C
:1004A80002F059EF02F05FEF02F0200EE3EC28F0C3
:1004B8000F2ADDEF03F00E50010D8C0EF324D96ED8
:1004C800000EF420DA6EDF50116E0E2A1150D8A4F7
:1004D80070EF02F072EF02F076EF02F0010E0D6E8F
:1004E800DDEF03F0650E11607CEF02F07EEF02F0A5
:1004F800D5EF02F011C010F0630E106486EF02F021
:1005080088EF02F0A7EF02F0310EE3EC28F00F2A93
:1005180010C001F0026A000E046E640E036EDFEC78
:100528001CF00150106E0A0E10609DEF02F09FEF54
:1005380002F0A7EF02F0300EE3EC28F00F2AA7EF45
:1005480002F0A7EF02F0090E1064ADEF02F0AFEF72
:1005580002F0CAEF02F010C001F0026A000E046E49
:100568000A0E036ED1EC19F00150300FE3EC28F0BD
:100578000F2A10C001F0026A000E046E0A0E036E04
:10058800DFEC1CF00150106ECAEF02F01050300F73
:10059800E3EC28F00F2A250EE3EC28F00F2ADDEF14
:1005A80003F0640E1164DBEF02F0DDEF02F042EFBE
:1005B80003F0DD0E1160E3EF02F0E5EF02F042EF29
:1005C80003F0110E016E000E026E84EC11F011C0E2
:1005D80010F0630E1064F3EF02F0F5EF02F014EF81
:1005E80003F0310EE3EC28F00F2A10C001F0026A84
:1005F800000E046E640E036EDFEC1CF00150106EEA
:100608000A0E10600AEF03F00CEF03F014EF03F08A
:10061800300EE3EC28F00F2A14EF03F014EF03F088
:10062800090E10641AEF03F01CEF03F037EF03F024
:1006380010C001F0026A000E046E0A0E036ED1ECBF
:1006480019F00150300FE3EC28F00F2A10C001F028
:10065800026A000E046E0A0E036EDFEC1CF00150F5
:10066800106E37EF03F01050300FE3EC28F00F2A2C
:10067800730EE3EC28F00F2ADDEF03F0DC0E1164B3
:1006880048EF03F04AEF03F0B7EF03F0FE0E1160F6
:1006980050EF03F052EF03F0B7EF03F0110E016EC5
:1006A800000E026E84EC11F088EF03F068EF03F09F
:1006B80068EF03F068EF03F068EF03F068EF03F00A
:1006C80068EF03F068EF03F01150DF0BE3EC28F05C
:1006D8000F2A11BA72EF03F074EF03F07AEF03F008
:1006E800000E0C6E2B0E0B6E80EF03F0000E0C6EDE
:1006F8002D0E0B6E80EF03F00B50E3EC28F00F2A61
:10070800DDEF03F0DDEF03F01150096E0A6A0A50BD
:10071800000AD8B492EF03F0DDEF03F00950410A64
:10072800D8B468EF03F0030AD8B468EF03F0010AFD
:10073800D8B468EF03F0070AD8B468EF03F0250AC5
:10074800D8B468EF03F0030AD8B468EF03F0010ADD
:10075800D8B468EF03F0070AD8B468EF03F0DDEF08
:1007680003F0DDEF03F0FE0E1118D8A4BEEF03F07E
:10077800C0EF03F0DDEF03F0110E016E000E026E04
:1007880084EC11F011C010F01050300FE3EC28F099
:100798000F2A250EE3EC28F00F2ADDEF03F0DDEF3A
:1007A80003F0DDEF03F0DDEF03F0DDEF03F0DDEF45
:1007B80003F0140E0F64E3EF03F0E5EF03F051EFDD
:1007C80002F0E7EF03F01200A20E0001601909E140
:1007D800210E6119D8B4F3EF03F0F5EF03F05CEFE5
:1007E80004F0FF0E406E040EEAEC0CF0000E406EB2
:1007F800090EEAEC0CF0010E406E0E0EEAEC0CF05D
:1008080020EEF0F002D821EF04F00500FA6EDE5079
:10081800FD6EDE50FE6EF850FF6EFA50040E326E1A
:100828005EEC2DF0496EFE0E4924336E346AFF0EDD
:100838003422020E356E030E120020EEF0F002D8BC
:100848003EEF04F00500FA6EDE50FD6EDE50FE6EDF
:10085800F850FF6EFA50010E326E4CEC2DF0496ED6
:10086800FF0E4924336E346AFF0E3422020E356EB1
:10087800030E120020EEF0F002D85AEF04F0050043
:10088800FA6EDE50FD6EDE50FE6EF850FF6EFA50C6
:100898000E0E326E47EC2DF0010E0124336E000E61
:1008A8000220346E050E356E030E12005CEF04F064
:1008B800A20E0001601907E1210E6119D8A467EFA3
:1008C80004F069EF04F028EF05F0020E8B19D8B494
:1008D80070EF04F072EF04F028EF05F020EEEEF070
:1008E80002D888EF04F00500FA6EDE50FD6EDE5087
:1008F800FE6EF850FF6EFA50000E086ECB0E096EB1
:100908007C0E0A6E000E120020EEEEF002D89EEF6A
:1009180004F00500FA6EDE50FD6EDE50FE6EF850F3
:10092800FF6EFA50000E086EA10E096E7C0E0A6E5C
:10093800010E1200FF0E406E040EEAEC0CF0000EE1
:10094800406E090EEAEC0CF0010E406E0E0EEAEC59
:100958000CF020EEF0F002D8CAEF04F00500FA6EB1
:10096800DE50FD6EDE50FE6EF850FF6EFA50040E3B
:10097800326E5EEC2DF0496EFE0E4924336E346AF9
:10098800FF0E3422020E356E030E120020EEF0F038
:1009980002D8E7EF04F00500FA6EDE50FD6EDE5077
:1009A800FE6EF850FF6EFA50010E326E4CEC2DF0D0
:1009B800496EFF0E4924336E346AFF0E3422020E4C
:1009C800356E030E120020EEF0F002D803EF05F0AA
:1009D8000500FA6EDE50FD6EDE50FE6EF850FF6EBA
:1009E800FA500E0E326E47EC2DF0010E0124336ED4
:1009F800000E0220346E050E356E030E120028EF2D
:100A080005F028EF05F0010E00018B6F46EF05F0A9
:100A1800020E00018B6F46EF05F0000E00018B6F90
:100A280046EF05F0020E00018B19D8A41EEF05F061
:100A380020EF05F046EF05F0030E8B6F46EF05F04B
:100A480046EF05F046EF05F051EC2DF0496E4A6A85
:100A58004A50000AD8B433EF05F046EF05F0495084
:100A6800230AD8B407EF05F0130AD8B411EF05F03C
:100A7800010AD8B416EF05F0040AD8B40CEF05F053
:100A880046EF05F0500E0001601907E15A0E611992
:100A9800D8A451EF05F053EF05F069EF05F08B513D
:100AA800D8A459EF05F05BEF05F069EF05F0580E93
:100AB8006A6F360E6B6F920E456E570E466E89EF53
:100AC80005F089EF05F083EF05F0500E601907E196
:100AD8005A0E6119D8A473EF05F075EF05F083EF8E
:100AE80005F02C0E6A6F5A0E6B6F920E456E570EFC
:100AF800466E89EF05F089EF05F083EF05F0D00E1B
:100B0800456E070E466E89EF05F0120020EECCF018
:100B180002D8A0EF05F00500FA6EDE50FD6EDE503B
:100B2800FE6EF850FF6EFA500C0E056EB50E066E8E
:100B3800000E076E0C0E12000001B551A7EC26F04E
:100B480020EEC8F002D8B8EF05F00500FA6EDE50C6
:100B5800FD6EDE50FE6EF850FF6EFA509E0E056E6A
:100B6800000E066E0D0E12009E0E0001826F000E22
:100B7800836F82C0D9FF83C0DAFFDE28D8A4C7EF0D
:100B880005F0C9EF05F0EAEF05F020EECEF002D847
:100B9800E5EF05F00500FA6EDE50FD6EDE50FE6EE4
:100BA800F850FF6EFA5051EC2DF0496E4950016E25
:100BB800026A000E046E300E036EDFEC1CF001506A
:100BC8001200000E00019E6FEAEF05F09E0E4D6EBA
:100BD800000E4E6ECEEF06F04DC0D9FF4EC0DAFFC4
:100BE800640EDF64FAEF05F0FCEF05F00BEF06F09A
:100BF8004DC0D9FF4EC0DAFFFE0EDE18D8A407EFAD
:100C080006F009EF06F01AEF06F00BEF06F04DC0FC
:100C180001F04EC002F084EC11F04DC0D9FF4EC077
:100C2800DAFFDF5092EC28F0C8EF06F04DC0D9FF8C
:100C38004EC0DAFF640EDF6424EF06F026EF06F0FC
:100C480041EF06F04DC0D9FF4EC0DAFFDD0EDF6080
:100C580030EF06F032EF06F041EF06F04DC001F03C
:100C68004EC002F084EC11F04DC0D9FF4EC0DAFF3F
:100C7800DF50DBEC26F0C8EF06F04DC001F04EC0A7
:100C880002F084EC11F061EF06F057EF06F057EF31
:100C980006F057EF06F057EF06F057EF06F057EF5C
:100CA80006F057EF06F04DC0D9FF4EC0DAFFDF0E51
:100CB800DF1692EF06F092EF06F04DC0D9FF4EC056
:100CC800DAFFDF50496E4A6A4A50000AD8B46FEF1B
:100CD80006F092EF06F04950410AD8B457EF06F0F3
:100CE800030AD8B457EF06F0010AD8B457EF06F054
:100CF800070AD8B457EF06F0250AD8B457EF06F01C
:100D0800030AD8B457EF06F0010AD8B457EF06F033
:100D1800070AD8B457EF06F092EF06F04DC0D9FF96
:100D28004EC0DAFFDF506CEC21F04DC0D9FF4EC049
:100D3800DAFFDF501AEC1EF00009D8A4A6EF06F07F
:100D4800A8EF06F0B6EF06F04DC0D9FF4EC0DAFFA7
:100D5800DF50496E4A6A200E49104B6E4A504C6E5D
:100D6800C1EF06F04DC0D9FF4EC0DAFFDF50496E23
:100D780049504B6E4C6AC1EF06F04B500FEC27F010
:100D8800C8EF06F0C8EF06F040EC02F04D4A4E2AD4
:100D9800CEEF06F04DC0D9FF4EC0DAFFDF50D8A421
:100DA800D8EF06F0DAEF06F0F0EF05F0DCEF06F02A
:100DB800320E00016A6F370E6B6F360E686F3F0E8A
:100DC800696F920E456E570E466EEBEF06F01200F5
:100DD80020EECCF002D802EF07F00500FA6EDE50E4
:100DE800FD6EDE50FE6EF850FF6EFA5089C005F0B9
:100DF800B50E066E000E076E0C0E12000001B551FE
:100E0800A7EC26F020EEC8F002D81BEF07F005008B
:100E1800FA6EDE50FD6EDE50FE6EF850FF6EFA5030
:100E28009E0E056E000E066E0001895112009E0E80
:100E38004D6E000E4E6EFDEF07F04DC0D9FF4EC04F
:100E4800DAFF640EDF642BEF07F02DEF07F03CEFBD
:100E580007F04DC0D9FF4EC0DAFFFE0EDE18D8A449
:100E680038EF07F03AEF07F04BEF07F03CEF07F0E9
:100E78004DC001F04EC002F084EC11F04DC0D9FF16
:100E88004EC0DAFFDF5092EC28F0F9EF07F04DC0C2
:100E9800D9FF4EC0DAFF640EDF6455EF07F057EF55
:100EA80007F072EF07F04DC0D9FF4EC0DAFFDD0E34
:100EB800DF6061EF07F063EF07F072EF07F04DC0F6
:100EC80001F04EC002F084EC11F04DC0D9FF4EC0C5
:100ED800DAFFDF50DBEC26F0F9EF07F04DC001F048
:100EE8004EC002F084EC11F092EF07F088EF07F0A3
:100EF80088EF07F088EF07F088EF07F088EF07F032
:100F080088EF07F088EF07F04DC0D9FF4EC0DAFF31
:100F1800DF0EDF16C3EF07F0C3EF07F04DC0D9FFB0
:100F28004EC0DAFFDF50496E4A6A4A50000AD8B408
:100F3800A0EF07F0C3EF07F04950410AD8B488EF93
:100F480007F0030AD8B488EF07F0010AD8B488EF8D
:100F580007F0070AD8B488EF07F0250AD8B488EF55
:100F680007F0030AD8B488EF07F0010AD8B488EF6D
:100F780007F0070AD8B488EF07F0C3EF07F04DC0B1
:100F8800D9FF4EC0DAFFDF506CEC21F04DC0D9FF1D
:100F98004EC0DAFFDF501AEC1EF00009D8A4D7EFD4
:100FA80007F0D9EF07F0E7EF07F04DC0D9FF4EC0C3
:100FB800DAFFDF50496E4A6A200E49104B6E4A50DC
:100FC8004C6EF2EF07F04DC0D9FF4EC0DAFFDF508C
:100FD800496E49504B6E4C6AF2EF07F04B500FECDC
:100FE80027F0F9EF07F0F9EF07F04D4A4E2AFDEF29
:100FF80007F04DC0D9FF4EC0DAFFDF50D8A407EF85
:1010080008F009EF08F021EF07F00BEF08F0A40E45
:101018000001686F590E696F320E456E370E466EC5
:1010280016EF08F0120020EECCF002D82DEF08F0F1
:101038000500FA6EDE50FD6EDE50FE6EF850FF6E53
:10104800FA5089C005F0B50E066E000E076E0C0E3C
:10105800120020EEC8F002D842EF08F00500FA6E40
:10106800DE50FD6EDE50FE6EF850FF6EFA509E0E9A
:10107800056E000E066E0001895112009E0E4D6E1F
:10108800000E4E6E24EF09F04DC0D9FF4EC0DAFFB6
:10109800640EDF6452EF08F054EF08F063EF08F0D5
:1010A8004DC0D9FF4EC0DAFFFE0EDE18D8A45FEFA0
:1010B80008F061EF08F072EF08F063EF08F04DC038
:1010C80001F04EC002F084EC11F04DC0D9FF4EC0C3
:1010D800DAFFDF5092EC28F020EF09F04DC0D9FF7D
:1010E8004EC0DAFF640EDF647CEF08F07EEF08F094
:1010F80099EF08F04DC0D9FF4EC0DAFFDD0EDF6072
:1011080088EF08F08AEF08F099EF08F04DC001F079
:101118004EC002F084EC11F04DC0D9FF4EC0DAFF8A
:10112800DF50DBEC26F020EF09F04DC001F04EC097
:1011380002F084EC11F0B9EF08F0AFEF08F0AFEF70
:1011480008F0AFEF08F0AFEF08F0AFEF08F0AFEF3F
:1011580008F0AFEF08F04DC0D9FF4EC0DAFFDF0E40
:10116800DF16EAEF08F0EAEF08F04DC0D9FF4EC0ED
:10117800DAFFDF50496E4A6A4A50000AD8B4C7EF0E
:1011880008F0EAEF08F04950410AD8B4AFEF08F088
:10119800030AD8B4AFEF08F0010AD8B4AFEF08F0EB
:1011A800070AD8B4AFEF08F0250AD8B4AFEF08F0B3
:1011B800030AD8B4AFEF08F0010AD8B4AFEF08F0CB
:1011C800070AD8B4AFEF08F0EAEF08F04DC0D9FF2E
:1011D8004EC0DAFFDF506CEC21F04DC0D9FF4EC095
:1011E800DAFFDF501AEC1EF00009D8A4FEEF08F071
:1011F80000EF09F00EEF09F04DC0D9FF4EC0DAFF3D
:10120800DF50496E4A6A200E49104B6E4A504C6EA8
:1012180019EF09F04DC0D9FF4EC0DAFFDF50496E13
:1012280049504B6E4C6A19EF09F04B500FEC27F000
:1012380020EF09F020EF09F04D4A4E2A24EF09F07B
:101248004DC0D9FF4EC0DAFFDF50D8A42EEF09F009
:1012580030EF09F048EF08F032EF09F0F40E000122
:101268006A6F3F0E6B6F920E456E570E466E3DEFDE
:1012780009F01200ECEF09F046EF09F046EF09F02B
:1012880046EF09F0ABEC2CF00009D8B44EEF09F0AA
:1012980050EF09F01EEF0AF051EC2DF06CEC21F044
:1012A80051EC2DF01AEC1EF00009D8A45EEF09F0FD
:1012B80060EF09F06BEF09F051EC2DF0496E4A6AC6
:1012C800200E49104B6E4A504C6E73EF09F051ECEA
:1012D8002DF0496E49504B6E4C6A73EF09F04B5034
:1012E8000FEC27F02C0E456E5A0E466E3BEF0AF0B7
:1012F8003BEF0AF01EEF0AF073EC26F02C0E456E59
:101308005A0E466E3BEF0AF03BEF0AF01EEF0AF06A
:101318009EEC2CF02C0E456E5A0E466E3BEF0AF0F2
:101328003BEF0AF01EEF0AF05EEC2DF0020AD8A49B
:10133800A0EF09F0A2EF09F0ACEF09F0920E456EAC
:10134800460E466E3BEF0AF03BEF0AF01EEF0AF03E
:10135800B4EC20F02C0E456E5A0E466E3BEF0AF0A8
:101368003BEF0AF01EEF0AF0780E00018A6F000EBC
:10137800B16F000EB06F7C0E6A6F4C0E6B6F5C0E17
:10138800686F580E696F7C0E456E4C0E466E3BEFCB
:101398000AF03BEF0AF01EEF0AF0640E00018A6FB4
:1013A800000EB16F000EB06F120E6A6F4C0E6B6FAD
:1013B800380E686F580E696F120E456E4C0E466EE9
:1013C8003BEF0AF03BEF0AF01EEF0AF01EEF0AF0BF
:1013D80051EC2DF0496E4A6A4A50000AD8B4F7EF2A
:1013E80009F01EEF0AF049502A0AD8B498EF09F01C
:1013F8001A0AD8B4B8EF09F0040AD8B48CEF09F087
:10140800020AD8B480EF09F00F0AD8B4D1EF09F076
:10141800780AD8B446EF09F0030AD8B446EF09F0C1
:10142800010AD8B446EF09F0070AD8B446EF09F024
:101438001EEF0AF051EC2DF0230AD8A426EF0AF08B
:1014480028EF0AF035EF0AF0C80E00016A6F310E76
:101458006B6F920E456E570E466E3BEF0AF03BEFF0
:101468000AF07C0E456E120E466E3BEF0AF0120033
:10147800096E0950D8B443EF0AF045EF0AF067EF58
:101488000AF004BE4CEF0AF04AEF0AF067EF0AF0E0
:1014980001C005F002C006F003C007F004C008F060
:1014A800051E061E071E081E052A000E0622072214
:1014B800082205C00BF006C00CF007C00DF008C0EC
:1014C8000EF071EF0AF001C00BF002C00CF003C07F
:1014D8000DF004C00EF071EF0AF001500210031075
:1014E8000410D8A47AEF0AF07CEF0AF088EF0AF02B
:1014F800000E016E000E026E000E036E000E046EEA
:1015080029EF0BF029EF0BF0960E0A6E94EF0AF014
:101518000A2AD8900E320D320C320B3294EF0AF0B0
:10152800000E0B14056E000E0C14066E000E0D1442
:10153800076EFE0E0E14086E0550061007100810F0
:10154800D8A4A9EF0AF0ABEF0AF08CEF0AF0BBEFD2
:101558000AF0BBEF0AF00A2A010E0B26000E0C2235
:101568000D220E22D8900E320D320C320B32000EA4
:101578000B14056E000E0C14066E000E0D14076E8B
:10158800FF0E0E14086E0550061007100810D8A498
:10159800D0EF0AF0D2EF0AF0AFEF0AF0DEEF0AF070
:1015A800DEEF0AF00A06D8900B360C360D360E36EA
:1015B800DEEF0AF00DBEE3EF0AF0E5EF0AF0EFEF19
:1015C8000AF0020E0A60EBEF0AF0EDEF0AF0D6EF30
:1015D8000AF0EFEF0AF00AB0F4EF0AF0F6EF0AF0BB
:1015E800F9EF0AF00D9EF9EF0AF0D8900A320AC016
:1015F80005F0066A076A086A05C008F0076A066AFD
:10160800056A05500B1206500C1207500D120850AF
:101618000E120950D8B413EF0BF015EF0BF01FEFB3
:101628000BF004BE1CEF0BF01AEF0BF01FEF0BF0E2
:101638000E8E1FEF0BF00BC001F00CC002F00DC0B6
:1016480003F00EC004F029EF0BF01200C2EF0BF00C
:1016580051EC2DF06CEC21F0040E036E030E76ECC9
:1016680027F0410E1AEC1EF00009D8A43EEF0BF04B
:1016780040EF0BF046EF0BF0000E4C6E2D0E4B6E4C
:101688004CEF0BF0000E4C6E2B0E4B6E4CEF0BF02C
:101698004B50E3EC28F0E0EF0BF051EC2DF06CEC44
:1016A80021F0080E036E030E76EC27F0420E1AECBA
:1016B8001EF00009D8A463EF0BF065EF0BF06BEF99
:1016C8000BF0000E4E6E2D0E4D6E71EF0BF0000EEE
:1016D8004E6E2B0E4D6E71EF0BF04D50E3EC28F073
:1016E800E0EF0BF051EC2DF06CEC21F00C0E036EDA
:1016F800030E76EC27F0430E1AEC1EF00009D8A46E
:1017080088EF0BF08AEF0BF090EF0BF0000E506EA5
:101718002D0E4F6E96EF0BF0000E506E2B0E4F6E87
:1017280096EF0BF04F50E3EC28F0E0EF0BF051ECA4
:101738002DF06CEC21F0100E036E030E76EC27F002
:10174800440E1AEC1EF00009D8A4ADEF0BF0AFEF71
:101758000BF0B5EF0BF0000E526E2D0E516EBBEF75
:101768000BF0000E526E2B0E516EBBEF0BF051506A
:10177800E3EC28F0E0EF0BF0E0EF0BF051EC2DF08C
:10178800496E4A6A4A50000AD8B4CDEF0BF0E0EF30
:101798000BF04950410AD8B42CEF0BF0030AD8B427
:1017A80051EF0BF0010AD8B476EF0BF0070AD8B462
:1017B8009BEF0BF0E0EF0BF0360E00016A6F530E53
:1017C8006B6F51EC2DF0230AD8A4EDEF0BF0EFEF7F
:1017D8000BF0F7EF0BF0920E456E570E466E0FEFBB
:1017E8000CF00FEF0CF051EC2DF02A0AD8A4FFEF03
:1017F8000BF001EF0CF009EF0CF0360E456E3F0EC2
:10180800466E0FEF0CF00FEF0CF0540E456E160EEF
:10181800466E0FEF0CF0120020EEEEF002D826EF25
:101828000CF00500FA6EDE50FD6EDE50FE6EF850CC
:10183800FF6EFA50000E086E1F0E096E7D0E0A6EBE
:10184800000E120020EEEEF002D83CEF0CF005007E
:10185800FA6EDE50FD6EDE50FE6EF850FF6EFA50E6
:10186800000E086E490E096E7D0E0A6E010E1200FA
:1018780020EEEEF002D852EF0CF00500FA6EDE50C2
:10188800FD6EDE50FE6EF850FF6EFA50000E086EC8
:10189800A40E096E7C0E0A6E020E1200ADEF0CF05B
:1018A80066EF0CF066EF0CF066EF0CF066EF0CF0EC
:1018B80066EF0CF066EF0CF066EF0CF066EF0CF0DC
:1018C80066EF0CF051EC2DF0496E4950016E026A3A
:1018D800000E046E300E036EDFEC1CF00150076E34
:1018E800B5C008F00C0E52EC2CF002D89CEF0CF0AE
:1018F80005000001FA6EC651FD6EC751FE6EF85024
:10190800FF6EFA502FEC2DF0020E0124076E000E28
:101918000220086E51EC2DF0496E4950016E026AA2
:10192800000E046E300E036EDFEC1CF00150120046
:10193800DA0E00016A6F300E6B6FAE0E456E250E23
:10194800466EE9EF0CF0E9EF0CF0E3EF0CF0E3EF93
:101958000CF051EC2DF0496E4A6A4A50000AD8B48E
:10196800B8EF0CF0E3EF0CF04950300AD8B466EF4A
:101978000CF0010AD8B466EF0CF0030AD8B466EF8D
:101988000CF0010AD8B466EF0CF0070AD8B466EF79
:101998000CF0010AD8B466EF0CF0030AD8B466EF6D
:1019A8000CF0010AD8B466EF0CF00F0AD8B466EF51
:1019B8000CF0010AD8B466EF0CF0E3EF0CF0200E3F
:1019C800456E180E466EE9EF0CF01200436E40505B
:1019D800B8EC2CF0446E4450D8B4F5EF0CF0F7EFA7
:1019E8000CF022EF0DF0650E4460FDEF0CF0FFEFF8
:1019F8000CF022EF0DF044C009F00A6A53EC29F00C
:101A0800030AD8A40AEF0DF00CEF0DF00FEF0DF05C
:101A180043060FEF0DF043C032F044C033F0346A90
:101A280044C009F00A6A53EC29F0356E000EBBEC8D
:101A38000DF0250EE3EC28F0BAEF0DF0640E4464C7
:101A480028EF0DF02AEF0DF05BEF0DF0DD0E44608E
:101A580030EF0DF032EF0DF05BEF0DF0440E016E3C
:101A6800000E026E84EC11F044C009F00A6A53ECCF
:101A780029F0030AD8A443EF0DF045EF0DF048EF25
:101A88000DF0430648EF0DF043C032F044C033F088
:101A9800346A44C009F00A6A53EC29F0356E000E26
:101AA800BBEC0DF0730EE3EC28F0BAEF0DF0DC0E92
:101AB800446461EF0DF063EF0DF092EF0DF0FE0E50
:101AC800446069EF0DF06BEF0DF092EF0DF0440EEE
:101AD800016E000E026E84EC11F043C003F0000E9C
:101AE80076EC27F04450DF0BE3EC28F044BA7FEFA4
:101AF8000DF081EF0DF087EF0DF0000E426E2B0E0A
:101B0800416E8DEF0DF0000E426E2D0E416E8DEF81
:101B18000DF04150E3EC28F0BAEF0DF0FE0E44183A
:101B2800D8A499EF0DF09BEF0DF0BAEF0DF0440E2D
:101B3800016E000E026E84EC11F043C032F044C016
:101B480033F0346A44C009F00A6A53EC29F0356E60
:101B5800000EBBEC0DF0250EE3EC28F0BAEF0DF00B
:101B6800BAEF0DF0BAEF0DF0BAEF0DF012003B6EC0
:101B780034BEC1EF0DF0C4EF0DF0010EC5EF0DF04E
:101B8800000E3D6E3D50D8B4CCEF0DF0CEEF0DF009
:101B9800D4EF0DF0336C341ED8B0342AD4EF0DF0E6
:101BA80032C003F03B5076EC27F0270E3F6E100E44
:101BB8003E6E050E3C6E09EF0EF033C001F034C0E6
:101BC80002F03EC003F03FC004F0D1EC19F0015020
:101BD8000210D8A4F2EF0DF0F4EF0DF020EF0EF0A4
:101BE8003C06F9EF0DF020EF0EF03EC001F03FC0CB
:101BF80002F0000E046E0A0E036ED1EC19F001C05B
:101C08003EF002C03FF009EF0EF03FBE16EF0EF0B7
:101C18003F5006E13E04D8B014EF0EF016EF0EF078
:101C2800E1EF0DF020EF0EF020EF0EF0200EE3ECC8
:101C380028F0350620EF0EF03550366E376A3D50E5
:101C48003CC038F0396A3826000E39223650385CE4
:101C58003950800A3A6E3750800A3A58D8B037EF70
:101C68000EF039EF0EF045EF0EF0020E35603FEF43
:101C78000EF041EF0EF01AEF0EF045EF0EF045EFC3
:101C88000EF03D50D8B44BEF0EF04DEF0EF052EF82
:101C98000EF02D0EE3EC28F052EF0EF033C001F0F9
:101CA80034C002F03EC003F03FC004F0D1EC19F09C
:101CB8000150300FE3EC28F033C001F034C002F0DB
:101CC8003EC003F03FC004F0DFEC1CF001C033F06D
:101CD80002C034F03EC001F03FC002F0000E046EB6
:101CE8000A0E036ED1EC19F001C03EF002C03FF0BD
:101CF8003FBE89EF0EF03F5006E13E04D8B087EFB3
:101D08000EF089EF0EF052EF0EF08BEF0EF012008E
:101D1800000E4A6EF60E056E000E066E20EED0F02E
:101D280002D8A1EF0EF00500FA6EDE50FD6EDE500F
:101D3800FE6EF850FF6EFA501200000E4C6E130E35
:101D48004C64A9EF0EF0ABEF0EF0AFEF0EF0FBEF27
:101D58000EF0FBEF0EF04C50010DF60EF324D96E89
:101D6800000EF420DA6E4C50020D8D0EF324F66E40
:101D78007C0EF420F76EDE500900F518D8A4C7EFE2
:101D88000EF0C9EF0EF0DEEF0EF04C50020D8D0E86
:101D9800F324F66E7C0EF420F76E4C50020D5F0EA5
:101DA800F324D96E010EF420DA6E0800F5CFDFFFB8
:101DB800EAEF0EF04C50020D5F0EF324D96E010EBF
:101DC800F420DA6E5F0EDF6EEAEF0EF0000E026EA0
:101DD800010E016E54EC2BF04C2A130E4C64F7EFF5
:101DE8000EF0F9EF0EF0AFEF0EF0FBEF0EF0000E75
:101DF8004B6E130E4B6403EF0FF005EF0FF009EF76
:101E08000FF02EEF0FF02EEF0FF04B50010D5F0E7D
:101E1800F324D96E010EF420DA6E5F0EDE18D8A412
:101E280018EF0FF01AEF0FF01DEF0FF04A2A1DEF11
:101E38000FF0000E026E010E016E54EC2BF04B2ACF
:101E4800130E4B642AEF0FF02CEF0FF009EF0FF091
:101E58002EEF0FF0090E4A6434EF0FF036EF0FF053
:101E680047EF0FF0020E0001886FBA0E6A6F2B0E53
:101E78006B6F920E456E570E466E58EF0FF058EF87
:101E88000FF052EF0FF0010E0001886FB00E456E93
:101E9800400E466E58EF0FF058EF0FF0180E456ED3
:101EA8001D0E466E58EF0FF01200010E496E20EE1F
:101EB800EEF002D871EF0FF00500FA6EDE50FD6EFD
:101EC800DE50FE6EF850FF6EFA50060E086ECC0E0D
:101ED800096E7F0E0A6E000E1200000E4A6E100E7A
:101EE8004A6479EF0FF07BEF0FF07FEF0FF0FDEF13
:101EF8000FF0FDEF0FF020EED2F002D896EF0FF0C2
:101F08000500FA6EDE50FD6EDE50FE6EF850FF6E74
:101F1800FA504A50100DF350100F036E4A50100D2E
:101F2800F350120020EEEEF002D8ACEF0FF00500EF
:101F3800FA6EDE50FD6EDE50FE6EF850FF6EFA50FF
:101F48004AC008F0FC0E096E7F0E0A6E030E1200DE
:101F580020EEF0F002D8E8EF0FF00500FA6EDE5040
:101F6800FD6EDE50FE6EF850FF6EFA50100E326EA7
:101F7800000E136E000E146EC80E156E400E166E0F
:101F88004A50016E026A036A046A010E3CEC0AF0C8
:101F980001C00FF002C010F003C011F004C012F02D
:101FA80009EC00F00FC028F010C029F011C02AF089
:101FB80012C02BF02EEC12F028C033F029C034F0F8
:101FC800030E356E030E1200250EE3EC28F0010E09
:101FD800026E2C0E016E54EC2BF0492A4A2A100E80
:101FE8004A64F9EF0FF0FBEF0FF07FEF0FF0FDEF12
:101FF8000FF00F0E496403EF10F005EF10F014EF27
:1020080010F0BA0E00016A6F470E6B6F920E456EA4
:10201800570E466E1CEF10F01CEF10F01CEF10F07E
:10202800B20E456E1E0E466E1CEF10F01CEF10F03F
:102038001200056EB7EF10F001C0D9FF02C0DAFF39
:10204800DF50D8A42AEF10F02CEF10F0D0EF10F0EA
:1020580001C0D9FF02C0DAFFFE0EDF6ED0EF10F02C
:10206800D0EF10F001C0D9FF02C0DAFF640EDF26FE
:10207800D0EF10F082EF10F001C0D9FF02C0DAFFF4
:10208800DD0EDF6ED0EF10F001C0D9FF02C0DAFF1D
:10209800DE0EDF6ED0EF10F001C0D9FF02C0DAFF0C
:1020A800DF0EDF6ED0EF10F001C0D9FF02C0DAFFFB
:1020B800E00EDF6ED0EF10F001C0D9FF02C0DAFFEA
:1020C800E10EDF6ED0EF10F001C0D9FF02C0DAFFD9
:1020D800E20EDF6ED0EF10F001C0D9FF02C0DAFFC8
:1020E800E30EDF6ED0EF10F001C0D9FF02C0DAFFB7
:1020F800E40EDF6ED0EF10F0D0EF10F001C0D9FF82
:1021080002C0DAFFDF50036E046A0450000AD8B434
:1021180090EF10F0D0EF10F00350410AD8B440EF20
:1021280010F0030AD8B450EF10F0010AD8B460EFE9
:1021380010F0070AD8B470EF10F0250AD8B448EFA9
:1021480010F0030AD8B458EF10F0010AD8B468EFB9
:1021580010F0070AD8B478EF10F0D0EF10F0D0EFF5
:1021680010F0D0EF10F00550036E046A0450000A16
:10217800D8B4C1EF10F0D0EF10F00350610AD8B412
:1021880082EF10F0110AD8B420EF10F0040AD8B486
:1021980036EF10F0D0EF10F01200640E0001B465B5
:1021A800D8EF10F0DAEF10F0E5EF10F0FE0EB419EA
:1021B800D8A4E1EF10F0E3EF10F01DEF11F0E5EF18
:1021C80010F0B40E016E000E026E84EC11F00001E6
:1021D800B451016E026A036A046AFF0E056E0F0E9F
:1021E800066E000E076E000E086E9AEC25F001C010
:1021F8000DF002C00EF003C00FF004C010F0640E22
:10220800116E000E126E000E136E000E146E15EC99
:1022180014F00DC01BF00EC01CF063EC2CF0F20E95
:10222800456E540E466E83EF11F083EF11F07DEF8B
:1022380011F0640E0001B46524EF11F026EF11F0DF
:1022480065EF11F0DD0EB4612CEF11F02EEF11F0F7
:1022580065EF11F0640EB45FB4C001F0026A030EBA
:10226800046EE80E036EDFEC2BF001C007F002C02D
:1022780008F0000E08BEFF0E096E0A6E0CEC2DF079
:1022880020EEF0F002D85BEF11F00500FA6EDE5098
:10229800FD6EDE50FE6EF850FF6EFA50000E326E84
:1022A800B4C033F0346A050E356E010E1200660EA6
:1022B800456E550E466E83EF11F083EF11F07DEFFA
:1022C80011F0B40E016E000E026E84EC11F0B20E25
:1022D800016E000E026E0001B45147EC1AF03A0E7E
:1022E800456E540E466E83EF11F083EF11F07DEFCB
:1022F80011F0A20E456E210E466E83EF11F012000A
:1023080001C0D9FF02C0DAFF650EDF608EEF11F061
:1023180090EF11F094EF11F02DEF12F02DEF12F075
:1023280001C0D9FF02C0DAFFDD0EDF609EEF11F0B9
:10233800A0EF11F0F4EF11F001C0D9FF02C0DAFFED
:10234800640EDF5E2DEF12F0F4EF11F001C0D9FF3B
:1023580002C0DAFF410EDF6E2DEF12F001C0D9FF87
:1023680002C0DAFF610EDF6E2DEF12F001C0D9FF57
:1023780002C0DAFF420EDF6E2DEF12F001C0D9FF66
:1023880002C0DAFF620EDF6E2DEF12F001C0D9FF36
:1023980002C0DAFF430EDF6E2DEF12F001C0D9FF45
:1023A80002C0DAFF630EDF6E2DEF12F001C0D9FF15
:1023B80002C0DAFF440EDF6E2DEF12F001C0D9FF24
:1023C80002C0DAFF640EDF6E2DEF12F001C0D9FFF4
:1023D80002C0DAFF000EDF6E2DEF12F02DEF12F0C3
:1023E80001C0D9FF02C0DAFFDF50036E046A04504F
:1023F800000AD8B402EF12F02DEF12F00350DD0AF4
:10240800D8B4AAEF11F0030AD8B4B2EF11F0010A58
:10241800D8B4BAEF11F03F0AD8B4C2EF11F0010AEC
:10242800D8B4CAEF11F0030AD8B4D2EF11F0010AF8
:10243800D8B4DAEF11F0070AD8B4E2EF11F01A0AAB
:10244800D8B4EAEF11F02DEF12F02DEF12F02DEFC6
:1024580012F012002A342B34316E3150D8A437EFE1
:1024680012F039EF12F045EF12F0000E286E000E50
:10247800296E000E2A6E000E2B6ED6EF12F0D6EFE4
:1024880012F028C02CF029C02DF02AC02EF02BC045
:102498002FF0200E55EF12F0D8902F322E322D3219
:1024A8002C32E82E50EF12F02C50306E2A8EFF0E90
:1024B8002816FF0E2916FF0E2A16000E2B16960E4A
:1024C800315E31BE6CEF12F06AEF12F090EF12F04D
:1024D8003150800A970FD8B074EF12F076EF12F0EF
:1024E80084EF12F0000E286E000E296E000E2A6E80
:1024F800000E2B6ED6EF12F0D6EF12F084EF12F02A
:10250800D8902B322A3229322832313E84EF12F009
:10251800BAEF12F0BAEF12F01F0E316496EF12F014
:1025280098EF12F0AEEF12F0000E286E000E296E32
:10253800000E2A6E000E2B6ED6EF12F0D6EF12F0B8
:10254800AEEF12F0D890283629362A362B363106C7
:10255800AEEF12F03150D8A4B4EF12F0B6EF12F08B
:10256800A6EF12F0BAEF12F0BAEF12F03050D8B46A
:10257800C0EF12F0C2EF12F0CCEF12F02B1E2A1EA1
:10258800291E286C000E29222A222B22CCEF12F0B9
:1025980028C028F029C029F02AC02AF02BC02BF027
:1025A800D6EF12F01200000E496E030E4964DFEFF9
:1025B80012F0E1EF12F0E5EF12F025EF13F025EF3E
:1025C80013F0000E4A6E130E4A64EDEF12F0EFEFAF
:1025D80012F0F3EF12F01AEF13F01AEF13F020EEE7
:1025E800EEF002D809EF13F00500FA6EDE50FD6E2A
:1025F800DE50FE6EF850FF6EFA504AC008F0FC0E2E
:10260800096E7F0E0A6E49501200000E026E0A0E05
:10261800016E54EC2BF04A2A130E4A6416EF13F09D
:1026280018EF13F0F3EF12F01AEF13F0492A030E24
:10263800496421EF13F023EF13F0E5EF12F025EFD3
:1026480013F0000E4B6E030E4B642DEF13F02FEFBB
:1026580013F033EF13F073EF13F073EF13F0000E72
:102668004C6E130E4C643BEF13F03DEF13F041EF4B
:1026780013F068EF13F068EF13F020EEEEF002D8D5
:1026880057EF13F00500FA6EDE50FD6EDE50FE6E59
:10269800F850FF6EFA504CC008F0B40E096E7C0E6C
:1026A8000A6E4B501200000E026E0A0E016E54ECB8
:1026B8002BF04C2A130E4C6464EF13F066EF13F002
:1026C80041EF13F068EF13F04B2A030E4B646FEFE2
:1026D80013F071EF13F033EF13F073EF13F047C0FB
:1026E80045F048C046F079EF13F0120051EC2DF098
:1026F800496E2F0E496483EF13F085EF13F0E8EF6E
:1027080013F051EC2DF0496E3A0E49608EEF13F03C
:1027180090EF13F0E8EF13F0AE0E076E000E086EA0
:1027280051EC2DF0BCEC28F0110E0001AE5D270E27
:10273800AF59D8A0A2EF13F0A4EF13F0AAEF13F04B
:10274800270EAF6F100EAE6FAAEF13F0FC0E456E9A
:10275800450E466E14EF14F014EF14F0E8EF13F082
:10276800BAEF13F0BAEF13F0BAEF13F02C0E000122
:102778006A6F5A0E6B6F920E456E570E466E14EFC7
:1027880014F014EF14F00EEF14F0AE0E086E000EF5
:10279800096E85EC2BF0FC0E456E450E466E14EF67
:1027A80014F014EF14F00EEF14F0010E00018B6F0B
:1027B800660E456E570E466E14EF14F014EF14F0C3
:1027C8000EEF14F00EEF14F051EC2DF0496E4A6A3A
:1027D8004A50000AD8B4F3EF13F00EEF14F0495042
:1027E800230AD8B4D9EF13F0090AD8B4C9EF13F003
:1027F8006B0AD8B4BAEF13F0030AD8B4BAEF13F0DF
:10280800010AD8B4BAEF13F0070AD8B4BAEF13F034
:102818000EEF14F0F40E456E260E466E14EF14F00B
:102828001200000E166E14BE1EEF14F01CEF14F00A
:102838002AEF14F0141E131E121E116C000E122221
:1028480013221422010E166E2AEF14F010BE31EF77
:1028580014F02FEF14F03DEF14F0101E0F1E0E1E93
:102868000D6C000E0E220F221022010E161A3DEFDB
:1028780014F0000E176E000E186E000E196E000E82
:102888001A6E1150121013101410D8B44EEF14F021
:1028980050EF14F092EF14F0010E156E5CEF14F087
:1028A800D8901136123613361436152A5CEF14F008
:1028B80014AE61EF14F063EF14F054EF14F067EF07
:1028C80014F067EF14F0D8901736183619361A3600
:1028D80011500D5C12500E5813500F5814501058C8
:1028E800D8A079EF14F07BEF14F086EF14F01150B4
:1028F8000D5E12500E5A13500F5A1450105A17806A
:1029080086EF14F0D8901432133212321132152E89
:1029180067EF14F092EF14F092EF14F01650D8B459
:1029280098EF14F09AEF14F0A4EF14F01A1E191E81
:10293800181E176C000E182219221A22A4EF14F080
:1029480017C00DF018C00EF019C00FF01AC010F023
:10295800AEEF14F01200056E1BEF15F001C0D9FFA1
:1029680002C0DAFFDF50020B48EF15F048EF15F010
:1029780048EF15F001C0D9FF02C0DAFFDF50010BA4
:1029880048EF15F048EF15F048EF15F001C0D9FFF2
:1029980002C0DAFFDF50080B48EF15F048EF15F0DA
:1029A80048EF15F001C0D9FF02C0DAFFDF50040B71
:1029B80048EF15F048EF15F048EF15F001C0D9FFC2
:1029C80002C0DAFFDF50200B48EF15F048EF15F092
:1029D80048EF15F001C0D9FF02C0DAFFDF50100B35
:1029E80048EF15F048EF15F048EF15F001C0D9FF92
:1029F80002C0DAFFDF50800B48EF15F048EF15F002
:102A080048EF15F001C0D9FF02C0DAFFDF50400BD4
:102A180048EF15F048EF15F048EF15F0000E48EFB5
:102A280015F048EF15F048EF15F048EF15F0055090
:102A3800036E046A0450000AD8B425EF15F012EFAB
:102A480015F00350410AD8B4B2EF14F0030AD8B411
:102A5800CAEF14F0010AD8B4E2EF14F0070AD8B4A8
:102A6800FAEF14F0250AD8B4BEEF14F0030AD8B46C
:102A7800D6EF14F0010AD8B4EEEF14F0070AD8B470
:102A880006EF15F012EF15F01200000E0001896F25
:102A98008CEF15F068EF15F068EF15F068EF15F09A
:102AA80068EF15F068EF15F068EF15F068EF15F0AE
:102AB80068EF15F068EF15F068EF15F068EF15F09E
:102AC80068EF15F068EF15F051EC2DF00001896FF3
:102AD80089C001F0026A000E046E300E036EDFEC4E
:102AE8001CF001500001896F47C045F048C046F00E
:102AF800DCEF15F0DCEF15F0360E456E3F0E466E36
:102B0800DCEF15F0DCEF15F0D6EF15F0D6EF15F089
:102B180051EC2DF0496E4A6A4A50000AD8B497EF32
:102B280015F0D6EF15F049502A0AD8B480EF15F001
:102B38001A0AD8B468EF15F0010AD8B468EF15F08E
:102B4800030AD8B468EF15F0010AD8B468EF15F095
:102B5800070AD8B468EF15F0010AD8B468EF15F081
:102B6800030AD8B468EF15F0010AD8B468EF15F075
:102B78000F0AD8B468EF15F0010AD8B468EF15F059
:102B8800780AD8B468EF15F0030AD8B468EF15F0DE
:102B9800010AD8B468EF15F0070AD8B468EF15F041
:102BA800D6EF15F0920E456E2A0E466EDCEF15F044
:102BB800120020EEEEF002D8F3EF15F00500FA6EE1
:102BC800DE50FD6EDE50FE6EF850FF6EFA50020EBB
:102BD800086EC10E096E7E0E0A6E000E120020EEFF
:102BE800EEF002D809EF16F00500FA6EDE50FD6E21
:102BF800DE50FE6EF850FF6EFA50020E086E0C0E94
:102C0800096E7F0E0A6E010E120020EEEEF002D859
:102C18001FEF16F00500FA6EDE50FD6EDE50FE6EF8
:102C2800F850FF6EFA50030E086E400E096E7F0EC4
:102C38000A6E020E120020EEEEF002D835EF16F002
:102C48000500FA6EDE50FD6EDE50FE6EF850FF6E27
:102C5800FA50000E086E300E096E7E0E0A6E030ED4
:102C6800120051EC2DF0230AD8A43DEF16F03FEFE7
:102C780016F04CEF16F0B00E00016A6F400E6B6F45
:102C8800920E456E570E466E69EF16F069EF16F014
:102C980051EC2DF02A0AD8A454EF16F056EF16F08E
:102CA80063EF16F0FC0E00016A6F450E6B6F920E13
:102CB800456E570E466E69EF16F069EF16F0BA0EBC
:102CC800456E2B0E466E69EF16F01200000E0D6E63
:102CD8005E040E6E020E0E6074EF16F076EF16F0BC
:102CE8007AEF16F0F5EF16F0F5EF16F00E50010D2D
:102CF8008C0EF324D96E000EF420DA6EDF500F6EBE
:102D0800650E0F608AEF16F08CEF16F096EF16F04E
:102D18000FC009F00A6A53EC29F00C6E0C280D2636
:102D280096EF16F0640E0F649CEF16F09EEF16F007
:102D3800B3EF16F0DD0E0F60A4EF16F0A6EF16F055
:102D4800B3EF16F09C0E0F24096E0A6AFF0E0A22D2
:102D580053EC29F00C6E0C280D26B3EF16F0DC0EA0
:102D68000F64B9EF16F0BBEF16F0C5EF16F0FE0EC4
:102D78000F60C1EF16F0C3EF16F0C5EF16F0020EA4
:102D88000D26FE0E0F18D8A4CCEF16F0CEEF16F0D5
:102D9800D8EF16F00FC009F00A6A53EC29F00C6E50
:102DA8000C280D26D8EF16F0140E0D64DEEF16F081
:102DB800E0EF16F0E6EF16F0F5EF16F0F5EF16F087
:102DC800EAEF16F00EC0F5F0EAEF16F00E06020E66
:102DD8000E60F1EF16F0F3EF16F07AEF16F0F5EF5C
:102DE80016F01200026E8A9C02C001F0013A0F0E22
:102DF8000116014601468A500118C30B01188A6E54
:102E08008A9E0204D8B40BEF17F00DEF17F018EFF5
:102E180017F0020E0218D8A414EF17F016EF17F0E7
:102E280021EF17F018EF17F00D0E016EFC0EE82ECB
:102E3800FED7012EFCD727EF17F0420EE82EFED75B
:102E480000D027EF17F08A8E0250F00B200AD8A482
:102E580030EF17F032EF17F047EF17F08A9C02C0F7
:102E680001F0013A0F0E0116014601468A50011879
:102E7800C30B01188A6E8A9E420EE82EFED700D038
:102E88008A8E47EF17F08A9C02C001F00F0E0116D8
:102E9800014601468A500118C30B01188A6E8A9EA2
:102EA8000204D8B45AEF17F05CEF17F067EF17F089
:102EB800020E0218D8A463EF17F065EF17F070EF51
:102EC80017F067EF17F00D0E016EFC0EE82EFED717
:102ED800012EFCD776EF17F0420EE82EFED700D071
:102EE80076EF17F08A8E1200040E036E030E76EC4E
:102EF80027F0410E1AEC1EF00009D8A486EF17F04F
:102F080088EF17F08EEF17F0000E096E2D0E086E81
:102F180094EF17F0000E096E2B0E086E94EF17F061
:102F28000850E3EC28F0080E036E030E76EC27F049
:102F3800420E1AEC1EF00009D8A4A5EF17F0A7EF6F
:102F480017F0ADEF17F0000E0B6E2D0E0A6EB3EFF3
:102F580017F0000E0B6E2B0E0A6EB3EF17F00A5027
:102F6800E3EC28F00C0E036E030E76EC27F0430E0C
:102F78001AEC1EF00009D8A4C4EF17F0C6EF17F03A
:102F8800CCEF17F0000E0D6E2D0E0C6ED2EF17F071
:102F9800000E0D6E2B0E0C6ED2EF17F00C50E3ECFA
:102FA80028F0100E036E030E76EC27F0440E1AEC90
:102FB8001EF00009D8A4E3EF17F0E5EF17F0EBEFE8
:102FC80017F0000E0F6E2D0E0E6EF1EF17F0000EBB
:102FD8000F6E2B0E0E6EF1EF17F00E50E3EC28F08B
:102FE800120044EF18F0860E00016A6F430E6B6FF3
:102FF800920E456E570E466E6CEF18F06CEF18F097
:1030080066EF18F0960E00016A6F3A0E6B6F920E1B
:10301800456E570E466E6CEF18F06CEF18F066EFC1
:1030280018F0B80E00016A6F3D0E6B6F920E456E78
:10303800570E466E6CEF18F06CEF18F066EF18F04C
:10304800F80E00016A6F3C0E6B6F920E456E570EBC
:10305800466E6CEF18F06CEF18F066EF18F0360E4D
:1030680000016A6F3F0E6B6F920E456E570E466EEB
:103078006CEF18F06CEF18F066EF18F066EF18F0C8
:1030880051EC2DF0496E4A6A4A50000AD8B44FEF05
:1030980018F066EF18F049502A0AD8B433EF18F040
:1030A8001B0AD8B4F7EF17F0030AD8B406EF18F0E4
:1030B800010AD8B415EF18F0070AD8B424EF18F0AD
:1030C80066EF18F0EA0E456E2F0E466E6CEF18F09C
:1030D800120020EECCF002D887EF18F00500FA6E47
:1030E800DE50FD6EDE50FE6EF850FF6EFA500C0E8C
:1030F800056E0001B551496E4A6A49C006F04AC0DA
:1031080007F00C0E120002D89EEF18F0050000011F
:10311800FA6EC651FD6EC751FE6EF850FF6EFA503A
:103128002FEC2DF0020E0124076E000E0220086E0F
:103138000D0E120020EEEEF002D8B4EF18F00500E4
:10314800FA6EDE50FD6EDE50FE6EF850FF6EFA50DD
:10315800060E086E110E096E7E0E0A6E000E120023
:1031680020EEEEF002D8CAEF18F00500FA6EDE5035
:10317800FD6EDE50FE6EF850FF6EFA50080E086EB7
:10318800F60E096E7F0E0A6E010E1200C80E076E4B
:10319800000E086E000E096E000E0A6E0CEC2DF083
:1031A800FC0E00016A6F450E6B6F920E686F570E2A
:1031B800696FBC0E456E530E466EE3EF18F01200B1
:1031C80020EEEEF002D8FAEF18F00500FA6EDE50A5
:1031D800FD6EDE50FE6EF850FF6EFA50040E086E5B
:1031E8007D0E096E7F0E0A6E000E120020EEEEF0C4
:1031F80002D810EF19F00500FA6EDE50FD6EDE50B1
:10320800FE6EF850FF6EFA50050E086EA40E096E99
:103218007F0E0A6E010E120020EEEEF002D826EFA5
:1032280019F00500FA6EDE50FD6EDE50FE6EF850A5
:10323800FF6EFA50000E086E300E096E7E0E0A6E92
:10324800030E120051EC2DF0230AD8A42EEF19F02A
:1032580030EF19F03DEF19F0180E00016A6F1D0EDE
:103268006B6F920E456E570E466E5AEF19F05AEF75
:1032780019F051EC2DF02A0AD8A445EF19F047EFC0
:1032880019F054EF19F0FC0E00016A6F450E6B6FD0
:10329800920E456E570E466E5AEF19F05AEF19F016
:1032A800C80E456E310E466E5AEF19F0120051ECF9
:1032B8002DF0496E2F0E496464EF19F066EF19F08E
:1032C80097EF19F051EC2DF0496E3A0E49606FEF07
:1032D80019F071EF19F097EF19F0B00E076E000EA4
:1032E800086E51EC2DF0BCEC28F000018A51496EB3
:1032F8004A6AB051495CB1514A58D8B086EF19F0C2
:1033080088EF19F08DEF19F08AC0B0F0B16B8DEF2E
:1033180019F047C045F048C046F0D0EF19F0D0EF9B
:1033280019F0CAEF19F051EC2DF02A0AD8A49FEF32
:1033380019F0A1EF19F0B1EF19F0B00E086E000EF8
:10334800096E85EC2BF047C045F048C046F0D0EF39
:1033580019F0D0EF19F0CAEF19F051EC2DF0230A4B
:10336800D8A4B9EF19F0BBEF19F0CAEF19F0000EA5
:1033780000018A6F45C045F046C046F0D0EF19F00D
:10338800D0EF19F0CAEF19F0CAEF19F0B60E456E72
:10339800320E466ED0EF19F01200000E066E04BE13
:1033A800DAEF19F0D8EF19F0E2EF19F0036C041E08
:1033B800D8B0042A010E066EE2EF19F002BEE9EF5A
:1033C80019F0E7EF19F0F1EF19F0016C021ED8B00F
:1033D800022A010E061AF1EF19F0000E086E000E0F
:1033E800076E03500410D8B4FCEF19F0FEEF19F083
:1033F80032EF1AF0010E056E08EF1AF0D890033676
:103408000436052A08EF1AF004AE0DEF1AF00FEF94
:103418001AF002EF1AF013EF1AF013EF1AF0D8901F
:10342800073608360350015C04500258D8A01FEF35
:103438001AF021EF1AF028EF1AF00350015E045039
:10344800025A078028EF1AF0D89004320332052E6A
:1034580013EF1AF032EF1AF032EF1AF00650D8B420
:1034680038EF1AF03AEF1AF040EF1AF0076C081E1E
:10347800D8B0082A40EF1AF007C001F008C002F0DF
:1034880046EF1AF01200056E8CEF1AF001C0D9FF52
:1034980002C0DAFF000EDB80B9EF1AF001C0D9FFD5
:1034A80002C0DAFFFE0EDF16B9EF1AF001C0D9FF2D
:1034B80002C0DAFF000EDB82B9EF1AF001C0D9FFB3
:1034C80002C0DAFFFD0EDF16B9EF1AF001C0D9FF0E
:1034D80002C0DAFF000EDB84B9EF1AF001C0D9FF91
:1034E80002C0DAFFFB0EDF16B9EF1AF001C0D9FFF0
:1034F80002C0DAFF000EDB86B9EF1AF001C0D9FF6F
:1035080002C0DAFFF70EDF16B9EF1AF0B9EF1AF0BA
:103518000550036E046A0450000AD8B496EF1AF0F6
:10352800B9EF1AF00350410AD8B44AEF1AF0030A67
:10353800D8B45AEF1AF0010AD8B46AEF1AF0070A99
:10354800D8B47AEF1AF0250AD8B452EF1AF0030A61
:10355800D8B462EF1AF0010AD8B472EF1AF0070A69
:10356800D8B482EF1AF0B9EF1AF01200000E036E09
:10357800000E046E030E0464C4EF1AF0C6EF1AF0CE
:10358800CAEF1AF026EF1BF026EF1BF004C001F07B
:10359800010E026E012AD3EF1AF0D8900236012EDE
:1035A800D1EF1AF00250836E000E056E030E05640B
:1035B800E0EF1AF0E2EF1AF0E6EF1AF01DEF1BF059
:1035C8001DEF1BF005C001F0100E026E012AEFEF8F
:1035D8001AF0D8900236012EEDEF1AF0025083143B
:1035E8000009D8B4FAEF1AF0FCEF1AF012EF1BF04A
:1035F8000450040DB60E016E000E026EF350012643
:10360800F45002220550010DF3500124D96EF450F4
:103618000220DA6EDF50036E12EF1BF0052A030E4C
:10362800056419EF1BF01BEF1BF0E6EF1AF01DEF16
:103638001BF0042A030E046424EF1BF026EF1BF092
:10364800CAEF1AF003C087F003502BEF1BF01200EB
:1036580020EEEEF002D842EF1BF00500FA6EDE50C5
:10366800FD6EDE50FE6EF850FF6EFA50010E086EC9
:10367800FA0E096E7E0E0A6E000E120020EEEEF0B3
:1036880002D858EF1BF00500FA6EDE50FD6EDE50D2
:10369800FE6EF850FF6EFA50000E086E300E096E7E
:1036A8007E0E0A6E030E120051EC2DF0230AD8A4E8
:1036B80060EF1BF062EF1BF075EF1BF03CEC2DF098
:1036C80066EC2DF05BEC2AF0360E00016A6F530EA3
:1036D8006B6FAE0E456E250E466E98EF1BF098EF99
:1036E8001BF051EC2DF02A0AD8A47DEF1BF07FEFD8
:1036F8001BF092EF1BF0010E00018B6F7A0E606FCA
:10370800530E616F280E6A6F470E6B6F920E456EEF
:10371800570E466E98EF1BF098EF1BF0580E456E4B
:10372800360E466E98EF1BF0120020EEF2F002D82B
:10373800A8EF1BF00500FA6EDE50FD6EDE50FE6E3F
:10374800F850FF6EFA50120020EEEEF002D8BEEFED
:103758001BF00500FA6EDE50FD6EDE50FE6EF8506E
:10376800FF6EFA50000E086EC30E096E7F0E0A6EC9
:10377800030E120020EEF0F002D8DBEF1BF005007C
:10378800FA6EDE50FD6EDE50FE6EF850FF6EFA5097
:10379800010E326E5EEC2DF0496EFE0E4924336E3A
:1037A800346AFF0E3422020E356E030E120020EE2C
:1037B800F0F002D8F8EF1BF00500FA6EDE50FD6E4F
:1037C800DE50FE6EF850FF6EFA50040E326E56EC64
:1037D8002DF0496EFE0E4924336E346AFF0E3422F2
:1037E800020E356E030E120040EC02F0FC0E0001D2
:1037F8006A6F450E6B6F560E456E490E466E05EFA5
:103808001CF0120020EEEEF002D81CEF1CF00500B0
:10381800FA6EDE50FD6EDE50FE6EF850FF6EFA5006
:10382800000E086EE60E096E7F0E0A6E030E120079
:1038380020EEF0F002D839EF1CF00500FA6EDE50E9
:10384800FD6EDE50FE6EF850FF6EFA50010E326EBD
:103858005EEC2DF0496EFE0E4924336E346AFF0E7D
:103868003422020E356E030E120020EEF0F002D85C
:1038780056EF1CF00500FA6EDE50FD6EDE50FE6E4F
:10388800F850FF6EFA50040E326E56EC2DF0496E69
:10389800FE0E4924336E346AFF0E3422020E356E52
:1038A800030E120051EC2DF02A0AD8A45EEF1CF08A
:1038B80060EF1CF06AEF1CF0360E456E3F0E466E48
:1038C80072EF1CF072EF1CF072EF1CF07C0E456E6C
:1038D800120E466E72EF1CF072EF1CF0120020EE12
:1038E800EEF002D889EF1CF00500FA6EDE50FD6E8E
:1038F800DE50FE6EF850FF6EFA50000E086EB60EDF
:10390800096E7C0E0A6E010E120021EE14F010EE04
:1039180049F0130EDBCFE3FFE806FCE2000E5D6E14
:10392800490E0001806F000E816FB3EF1CF05DC07F
:1039380003F0020E76EC27F080C0D9FF81C0DAFFD1
:10394800DF50E3EC28F05D2A000E026E320E016EA5
:1039580054EC2BF00001804B812BB3EF1CF080C09E
:10396800D9FF81C0DAFFDF50D8A4BDEF1CF0BFEF4C
:103978001CF09BEF1CF0C1EF1CF0000E806F000ED6
:10398800816F920E686F570E696FC80E076E000E32
:10399800086E000E096E000E0A6E0CEC2DF0360E45
:1039A80000016A6F3F0E6B6FBC0E456E530E466E7C
:1039B800DEEF1CF01200000E066E02BEE8EF1CF0EF
:1039C800E6EF1CF0F0EF1CF0016C021ED8B0022AE2
:1039D800010E066EF0EF1CF004BEF7EF1CF0F5EFD9
:1039E8001CF0FDEF1CF0036C041ED8B0042AFDEF98
:1039F8001CF003500410D8B404EF1DF006EF1DF0BE
:103A080036EF1DF0010E056E10EF1DF0D89003364D
:103A18000436052A10EF1DF004AE15EF1DF017EF60
:103A28001DF00AEF1DF01BEF1DF01BEF1DF00350FA
:103A3800015C04500258D8A024EF1DF026EF1DF0B9
:103A48002CEF1DF00350015E0450025A2CEF1DF0BC
:103A5800D89004320332052E1BEF1DF036EF1DF00F
:103A680036EF1DF00650D8B43CEF1DF03EEF1DF0C8
:103A780044EF1DF0016C021ED8B0022A44EF1DF07D
:103A880001C001F002C002F04AEF1DF0120020EE62
:103A9800EEF002D861EF1DF00500FA6EDE50FD6E03
:103AA800DE50FE6EF850FF6EFA50010E086ED40E0E
:103AB800096E7E0E0A6E000E120020EEEEF002D89D
:103AC80077EF1DF00500FA6EDE50FD6EDE50FE6EDB
:103AD800F850FF6EFA50030E086E500E096E7F0EF6
:103AE8000A6E010E120020EEEEF002D88DEF1DF0E6
:103AF8000500FA6EDE50FD6EDE50FE6EF850FF6E69
:103B0800FA50060E086EAF0E096E7F0E0A6E020E90
:103B1800120020EEEEF002D8A3EF1DF00500FA6EB9
:103B2800DE50FD6EDE50FE6EF850FF6EFA50000E4D
:103B3800086E300E096E7E0E0A6E030E1200B20E6B
:103B480000016A6F1E0E6B6F780E686F3E0E696F0C
:103B5800560E456E490E466EB2EF1DF01200F5EF97
:103B68001DF0920E00016A6F460E6B6F920E456E45
:103B7800570E466E19EF1EF019EF1EF013EF1EF0E8
:103B8800A40E00016A6F590E6B6F920E456E570EA8
:103B9800466E19EF1EF019EF1EF013EF1EF05BECE6
:103BA8002AF0140E00016A6F0B0E6B6F920E456EB1
:103BB800570E466E19EF1EF019EF1EF013EF1EF0A8
:103BC800780E00016A6F3E0E6B6F920E456E570EAF
:103BD800466E19EF1EF019EF1EF013EF1EF013EFEB
:103BE8001EF051EC2DF0496E4A6A4A50000AD8B4CA
:103BF80000EF1EF013EF1EF04950310AD8B4B5EFAC
:103C08001DF0030AD8B4C4EF1DF0010AD8B4D3EFED
:103C18001DF0070AD8B4E4EF1DF013EF1EF0660E8E
:103C2800456E3B0E466E19EF1EF01200036E5EEFF6
:103C38001EF0000185B123EF1EF026EF1EF0010EE5
:103C480027EF1EF0000E7BEF1EF07BEF1EF0000149
:103C580085B331EF1EF034EF1EF0010E35EF1EF084
:103C6800000E7BEF1EF07BEF1EF0000185B53FEFE5
:103C78001EF042EF1EF0010E43EF1EF0000E7BEF28
:103C88001EF07BEF1EF0000185B74DEF1EF050EFE0
:103C98001EF0010E51EF1EF0000E7BEF1EF07BEFC1
:103CA8001EF0000E7BEF1EF07BEF1EF07BEF1EF088
:103CB8007BEF1EF00350016E026A0250000AD8B46E
:103CC80068EF1EF055EF1EF00150410AD8B41DEF01
:103CD8001EF0030AD8B42BEF1EF0010AD8B439EF4E
:103CE8001EF0070AD8B447EF1EF055EF1EF0120079
:103CF80020EEEEF002D892EF1EF00500FA6EDE50CC
:103D0800FD6EDE50FE6EF850FF6EFA50000E086E23
:103D1800DC0E096E7D0E0A6E000E120020EEEEF02B
:103D280002D8A8EF1EF00500FA6EDE50FD6EDE50D8
:103D3800FE6EF850FF6EFA50000E086EF10E096E16
:103D48007D0E0A6E010E120020EEEEF002D8BEEFD4
:103D58001EF00500FA6EDE50FD6EDE50FE6EF85065
:103D6800FF6EFA50000E086E730E096E7D0E0A6E15
:103D7800030E120051EC2DF02A0AD8A4C6EF1EF04B
:103D8800C8EF1EF0D5EF1EF0780E00016A6F3E0EE8
:103D98006B6F920E456E570E466EDBEF1EF0DBEF33
:103DA8001EF0F80E456E3C0E466EDBEF1EF012005C
:103DB80020EEEEF002D8F2EF1EF00500FA6EDE50AB
:103DC800FD6EDE50FE6EF850FF6EFA50030E086E60
:103DD8005F0E096E7F0E0A6E000E120020EEEEF0E6
:103DE80002D808EF1FF00500FA6EDE50FD6EDE50B7
:103DF800FE6EF850FF6EFA50030E086E6E0E096ED6
:103E08007F0E0A6E010E120020EEEEF002D81EEFB1
:103E18001FF00500FA6EDE50FD6EDE50FE6EF850A3
:103E2800FF6EFA50050E086EA10E096E7E0E0A6E20
:103E3800020E120051EC2DF02A0AD8A426EF1FF02A
:103E480028EF1FF035EF1FF0780E00016A6F3E0E65
:103E58006B6F920E456E570E466E3BEF1FF03BEFB1
:103E68001FF0B80E456E3D0E466E3BEF1FF0120078
:103E780020EEEEF002D852EF1FF00500FA6EDE5089
:103E8800FD6EDE50FE6EF850FF6EFA50000E086EA2
:103E98001B0E096E7E0E0A6E000E120020EEEEF06A
:103EA80002D868EF1FF00500FA6EDE50FD6EDE5096
:103EB800FE6EF850FF6EFA50000E086E980E096EEE
:103EC8007F0E0A6E010E120020EEEEF002D87EEF91
:103ED8001FF00500FA6EDE50FD6EDE50FE6EF850E3
:103EE800FF6EFA50000E086E8B0E096E7F0E0A6E7A
:103EF800020E120020EEEEF002D894EF1FF005003B
:103F0800FA6EDE50FD6EDE50FE6EF850FF6EFA500F
:103F1800000E086E990E096E7E0E0A6E030E1200D0
:103F2800EA0E456E2F0E466E9AEF1FF0120020EE35
:103F3800EEF002D8B1EF1FF00500FA6EDE50FD6E0C
:103F4800DE50FE6EF850FF6EFA50000E086E060E38
:103F5800096E7E0E0A6E000E120020EEEEF002D8F8
:103F6800C7EF1FF00500FA6EDE50FD6EDE50FE6EE4
:103F7800F850FF6EFA50000E086E880E096E7D0E1E
:103F88000A6E010E120020EEEEF002D8DDEF1FF0EF
:103F98000500FA6EDE50FD6EDE50FE6EF850FF6EC4
:103FA800FA50000E086E5A0E096E7E0E0A6E020E48
:103FB800120020EEEEF002D8F3EF1FF00500FA6EC3
:103FC800DE50FD6EDE50FE6EF850FF6EFA50000EA9
:103FD800086E0A0E096E7D0E0A6E030E1200660E3A
:103FE800456E3B0E466EF9EF1FF0120040EC02F0F2
:103FF80020EEEEF002D812EF20F00500FA6EDE5047
:10400800FD6EDE50FE6EF850FF6EFA50000E086E20
:10401800450E096E7E0E0A6E030E120051EC2DF04D
:10402800230AD8A41AEF20F01CEF20F03AEF20F072
:1040380020EECEF002D82DEF20F00500FA6EDE500B
:10404800FD6EDE50FE6EF850FF6EFA500001895189
:104058001200B20E00016A6F4F0E6B6FAE0E456E06
:10406800250E466E57EF20F057EF20F051EC2DF05B
:104078002A0AD8A442EF20F044EF20F051EF20F0B4
:10408800860E00016A6F430E6B6F920E456E570ED7
:10409800466E57EF20F057EF20F0F40E456E3F0EB6
:1040A800466E57EF20F0120094EF20F020EEEEF06D
:1040B80002D870EF20F00500FA6EDE50FD6EDE507B
:1040C800FE6EF850FF6EFA50000E086E5F0E096E15
:1040D800010E0A6E030E1200200E456E180E466E73
:1040E800B3EF20F0B3EF20F0AAEF20F020EEEEF0CF
:1040F80002D890EF20F00500FA6EDE50FD6EDE501B
:10410800FE6EF850FF6EFA50000E086E790E096EBA
:104118007C0E0A6E030E1200AAEF20F0AAEF20F020
:1041280000018851496E4A6A4A50000AD8B49FEF84
:1041380020F0AAEF20F04950010AD8B45AEF20F035
:10414800030AD8B47AEF20F0AAEF20F0000E00019D
:10415800886FB00E456E400E466EB3EF20F0120029
:104168005E50D8B4BAEF20F0BCEF20F00DEF21F08C
:10417800020E5E64C2EF20F0C4EF20F0C7EF20F01B
:104188005E06C7EF20F05E50010D8C0EF324D96E49
:10419800000EF420DA6EDC0EDF64D5EF20F0D7EFE6
:1041A80020F001EF21F05E50010D8C0EF324016E1A
:1041B800000EF420026E84EC11F05E50010D8C0E9E
:1041C800F324D96E000EF420DA6EDF50DF0B6CECAE
:1041D80021F05E50010D8C0EF324D96E000EF420F0
:1041E800DA6EDF50106E116A10C001F011C002F0D3
:1041F800610E1DEC10F001EF21F05E50010D8C0EE8
:10420800F324D96E000EF420DA6E000EDF6E0DEF87
:1042180021F06AEC16F01200000E096E000E0A6E0C
:10422800000E0B6E000E0C6E0550061007100810DD
:10423800D8B421EF21F023EF21F063EF21F0010E34
:104248000D6E2FEF21F0D890053606360736083662
:104258000D2A2FEF21F008AE34EF21F036EF21F0D0
:1042680027EF21F03AEF21F03AEF21F0D890093604
:104278000A360B360C360550015C065002580750BA
:10428800035808500458D8A04CEF21F04EEF21F005
:1042980059EF21F00550015E0650025A0750035AA3
:1042A8000850045A098059EF21F0D8900832073293
:1042B800063205320D2E3AEF21F063EF21F009C0E6
:1042C80001F00AC002F00BC003F00CC004F01200A9
:1042D800036EA5EF21F0000185A175EF21F078EFBD
:1042E80021F085817AEF21F000018591C2EF21F05C
:1042F800000185A382EF21F085EF21F0858387EF08
:1043080021F000018593C2EF21F0000185A58FEF10
:1043180021F092EF21F0858594EF21F00001859539
:10432800C2EF21F0000185A79CEF21F09FEF21F05B
:104338008587A1EF21F000018597C2EF21F0C2EF38
:1043480021F00350016E026A0250000AD8B4AFEFA0
:1043580021F0C2EF21F00150410AD8B46FEF21F0EB
:10436800030AD8B47CEF21F0010AD8B489EF21F010
:10437800070AD8B496EF21F0C2EF21F012005BECE7
:104388002AF020EEEEF002D8DBEF21F00500FA6EFD
:10439800DE50FD6EDE50FE6EF850FF6EFA50010ED4
:1043A800086EAD0E096E7E0E0A6E000E120020EE2B
:1043B800EEF002D8F1EF21F00500FA6EDE50FD6E46
:1043C800DE50FE6EF850FF6EFA50020E086E2F0E89
:1043D800096E7F0E0A6E010E120020EEEEF002D872
:1043E80007EF22F00500FA6EDE50FD6EDE50FE6E1D
:1043F800F850FF6EFA50000E086E8D0E096E7C0E96
:104408000A6E030E12002E0E00016A6F100E6B6FFB
:10441800920E456E2A0E466E12EF22F012005BECE9
:104428002AF020EEEEF002D82BEF22F00500FA6E0B
:10443800DE50FD6EDE50FE6EF850FF6EFA50000E34
:10444800086E9D0E096E7D0E0A6E000E120020EE9B
:10445800EEF002D841EF22F00500FA6EDE50FD6E54
:10446800DE50FE6EF850FF6EFA50000E086EB20E67
:10447800096E7D0E0A6E010E120020EEEEF002D8D3
:1044880057EF22F00500FA6EDE50FD6EDE50FE6E2C
:10449800F850FF6EFA50000E086E8D0E096E7C0EF5
:1044A8000A6E030E1200D80E00016A6F0D0E6B6FB4
:1044B800920E456E2A0E466E62EF22F01200000E32
:1044C800096E090E09646BEF22F06DEF22F071EFAF
:1044D80022F0B0EF22F0B0EF22F009C001F0026A3A
:1044E80008EC2CF001C007F002C008F0075002ECFD
:1044F8002DF00009D8A483EF22F085EF22F0A5EF74
:1045080022F00A0E09608BEF22F08DEF22F098EF6F
:1045180022F009500524D96E000E0620DA6E0950E3
:10452800300FDF6EA5EF22F009500524D96E000E7A
:104538000620DA6E0950370FDF6EA5EF22F0A5EFDF
:1045480022F0092A090E0964ACEF22F0AEEF22F03E
:1045580071EF22F0B0EF22F0120042EC2DF091EC56
:104568002CF0400E0001666F560E676F500E606F9C
:104578005A0E616FC0EF22F0E8EC24F0FEEC29F04F
:1045880068C045F069C046F06AC047F06BC048F0A3
:1045980002D8DAEF22F005000001FA6E6651FD6ECE
:1045A8006751FE6EF850FF6EFA50120045C066F073
:1045B80046C067F062C045F063C046F064C047F08B
:1045C80065C048F002D8F4EF22F005000001FA6E49
:1045D8006051FD6E6151FE6EF850FF6EFA50120088
:1045E80045C060F046C061F0C0EF22F0C0EF22F095
:1045F80007EF00F020EEEEF002D814EF23F00500EC
:10460800FA6EDE50FD6EDE50FE6EF850FF6EFA5008
:10461800000E086EDE0E096E7F0E0A6E000E120086
:1046280020EEEEF002D82AEF23F00500FA6EDE50F5
:10463800FD6EDE50FE6EF850FF6EFA50000E086EEA
:10464800E70E096E7E0E0A6E030E120020EEF0F0E1
:1046580002D842EF23F00500FA6EDE50FD6EDE5000
:10466800FE6EF850FF6EFA500F0E326EAEC033F089
:10467800AFC034F0050E356E000E1200F40E456E14
:10468800260E466E48EF23F0120020EEEEF002D818
:104698005FEF23F00500FA6EDE50FD6EDE50FE6E11
:1046A800F850FF6EFA50000E086E340E096E7D0E3B
:1046B8000A6E000E120020EEEEF002D875EF23F01D
:1046C8000500FA6EDE50FD6EDE50FE6EF850FF6E8D
:1046D800FA50000E086EE00E096E7C0E0A6E010E8E
:1046E800120020EEEEF002D88BEF23F00500FA6EF0
:1046F800DE50FD6EDE50FE6EF850FF6EFA50000E72
:10470800086EF50E096E7C0E0A6E030E120078EC28
:1047180017F0540E456E160E466E93EF23F01200F6
:1047280020EEEEF002D8AAEF23F00500FA6EDE5074
:10473800FD6EDE50FE6EF850FF6EFA50000E086EE9
:10474800CB0E096E7C0E0A6E000E120020EEEEF003
:1047580002D8C0EF23F00500FA6EDE50FD6EDE5081
:10476800FE6EF850FF6EFA500A0E086ED50E096EEE
:104778007F0E0A6E020E120020EEEEF002D8D6EF7F
:1047880023F00500FA6EDE50FD6EDE50FE6EF85026
:10479800FF6EFA50000E086E840E096E7E0E0A6EC9
:1047A800030E1200D00E456E070E466EDCEF23F0A6
:1047B800120020EEEEF002D8F3EF23F00500FA6EB7
:1047C800DE50FD6EDE50FE6EF850FF6EFA50070E9A
:1047D800086EEE0E096E7F0E0A6E000E120020EEB5
:1047E800EEF002D809EF24F00500FA6EDE50FD6EF7
:1047F800DE50FE6EF850FF6EFA50060E086EB90EC7
:10480800096E7F0E0A6E010E1200C80E076E000EAA
:10481800086E000E096E000E0A6E0CEC2DF0920E5A
:104828000001686F570E696F780E6A6F3E0E6B6FE6
:10483800BC0E456E530E466E22EF24F012000001A6
:104848008B51D8B42AEF24F02CEF24F058EF24F041
:1048580047EC2DF001C049F002C04AF040EC2CF0C2
:104868000150495C02504A58D8A03DEF24F03FEF70
:1048780024F04CEF24F040EC2CF001500210D8A4A6
:1048880048EF24F04AEF24F058EF24F04CEF24F0DE
:1048980066EC2DF0520E456E4F0E466E66EF24F014
:1048A80066EF24F066EF24F0000E1C6E000E1B6EFF
:1048B80063EC2CF0500E456E5A0E466E66EF24F0EF
:1048C80066EF24F01200000E066E000E056E03500F
:1048D8000410D8B472EF24F074EF24F0A6EF24F09B
:1048E800010E076E7EEF24F0D89003360436072AAF
:1048F8007EEF24F004AE83EF24F085EF24F078EF08
:1049080024F089EF24F089EF24F0D8900536063694
:104918000350015C04500258D8A095EF24F097EF9B
:1049280024F09EEF24F00350015E0450025A0580E3
:104938009EEF24F0D89004320332072E89EF24F03A
:10494800A6EF24F005C001F006C002F01200CBEF7C
:1049580024F068C06AF069C06BF0920E456E570E7D
:10496800466EE7EF24F0E7EF24F0E1EF24F047C0CC
:104978006AF048C06BF0920E456E570E466EE7EF30
:1049880024F0E7EF24F0E1EF24F0E1EF24F051EC1C
:104998002DF0496E4A6A4A50000AD8B4D6EF24F07E
:1049A800E1EF24F04950230AD8B4BBEF24F0090AF8
:1049B800D8B4ADEF24F0E1EF24F0560E456E490E61
:1049C800466EE7EF24F0120000018405086E6AECD9
:1049D8002DF0000E096E15EF25F00950010DF3506A
:1049E80000017625D96EF4507721DA6E0950046EED
:1049F800056A041E051E044A052A0850066E076A41
:104A0800045006260550072206507425E16E07500B
:104A18007521E26EE75043EC27F0DF6E092A15EFA7
:104A280025F000018451095CD8A01DEF25F01FEF87
:104A380025F0F1EF24F021EF25F06AEC2DF01200BB
:104A48000C6E08C00BF008C003F00C5076EC27F091
:104A580045EF25F009C0F6FF0AC0F7FFF86A070E10
:104A6800F76403D00800F55005D0F6CFE1FFF7CF83
:104A7800E2FFE750E3EC28F0094A0A2A0B2A45EF3F
:104A880025F009C0F6FF0AC0F7FFF86A070EF764B9
:104A980003D00800F55005D0F6CFE1FFF7CFE2FFCD
:104AA800E7500009D8A45BEF25F05DEF25F02EEF65
:104AB80025F05FEF25F01200202020202020202064
:104AC8002020202020202020202020204D756E64CA
:104AD8006F20616F2073657520636F6D616E646F01
:104AE80020202020202020202020202020202020BE
:104AF80020202020202020202020202020202020AE
:104B080020202020202020000000000000000000BD
:104B1800000000000000002020202020202020206D
:0B4B2800202020202020202020202022
:104B3400000E096E000E0A6E000E0B6E000E0C6E57
:104B4400A4EF25F001A0A9EF25F0ABEF25F0B5EF18
:104B540025F00550092606500A2207500B2208505A
:104B64000C22B5EF25F0D890053606360736083600
:104B7400D890043203320232013201500210031081
:104B84000410D8A4C8EF25F0CAEF25F0A4EF25F04F
:104B940009C001F00AC002F00BC003F00CC004F01D
:104BA4001200C00EF66E4A0EF76E000EF86E01EE9D
:104BB40000F010EE73F00900F5CFEEFFE550E15080
:104BC400FAE1140EF66E520EF76E000EF86E00EE59
:104BD400B6F010EE4AF00900F5CFEEFFE550E150D3
:104BE400FAE1DA0EF66E5A0EF76E000EF86E090050
:104BF400F5CF5EF000EE60F0560EEE6AE806FDE1D9
:104C04005F905F92000EF86E0001B1EF22F020EE8B
:104C1400EEF002D81FEF26F00500FA6EDE50FD6EAE
:104C2400DE50FE6EF850FF6EFA50000E086EC70E8E
:104C3400096E7D0E0A6E020E120020EEF0F002D80C
:104C440037EF26F00500FA6EDE50FD6EDE50FE6E84
:104C5400F850FF6EFA500F0E326EB0C033F0B1C090
:104C640034F0030E356E020E1200B60E456E320E8F
:104C7400466E3DEF26F0120020EEEEF002D854EF1F
:104C840026F00500FA6EDE50FD6EDE50FE6EF85022
:104C9400FF6EFA50000E086E6F0E096E7E0E0A6EDD
:104CA400020E120020EEF0F002D86CEF26F00500A0
:104CB400FA6EDE50FD6EDE50FE6EF850FF6EFA5056
:104CC4000F0E326EB0C033F0B1C034F0030E356E47
:104CD400020E1200B60E456E320E466E72EF26F0CC
:104CE4001200110E0001F5617AEF26F07CEF26F038
:104CF400A2EF26F0FF0E016EFF0E026E5E50036EF1
:104D0400046A0150032602500422F551056E066A16
:104D14000350055C0650800A076E0450800A075849
:104D2400D8B097EF26F099EF26F09CEF26F0F52BFC
:104D3400A6EF26F05E04F56FA6EF26F0A6EF26F0A8
:104D4400110EF56FA6EF26F01200056E080E066E22
:104D5400410E046E0528D8A4B2EF26F0B4EF26F075
:104D6400CEEF26F0DAEF26F0DAEF26F0CEEF26F0DB
:104D7400055006140009D8B4C2EF26F0C4EF26F09B
:104D8400C9EF26F004506CEC21F0C9EF26F0042A98
:104D9400D8900632CEEF26F00650D8A4D4EF26F0F1
:104DA400D6EF26F0BAEF26F0DAEF26F0DAEF26F0A7
:104DB4001200106E120E5E60E2EF26F0E4EF26F0B1
:104DC4000CEF27F01050D8B4EAEF26F0ECEF26F001
:104DD4000CEF27F0100E016E000E026E740E1DEC27
:104DE40010F05E50010D8C0EF324D96E000EF420E9
:104DF400DA6E10C0DFFF5E2A5E50010D8C0EF324C4
:104E0400D96E000EF420DA6E000EDF6E0CEF27F080
:104E14000CEF27F06AEC16F01200106E120E5E60B2
:104E240016EF27F018EF27F040EF27F01050D8B412
:104E34001EEF27F020EF27F040EF27F0100E016E51
:104E4400000E026E610E1DEC10F05E50010D8C0E12
:104E5400F324D96E000EF420DA6E10C0DFFF5E2A50
:104E64005E50010D8C0EF324D96E000EF420DA6E20
:104E7400000EDF6E40EF27F040EF27F06AEC16F0EB
:104E84001200016E800E036E000E026E69EF27F0B1
:104E94008094015003140009D8B453EF27F055EF60
:104EA40027F058EF27F0808059EF27F0809080A2F8
:104EB4005EEF27F060EF27F064EF27F00350021253
:104EC40064EF27F08084D890033269EF27F0035011
:104ED400D8A46FEF27F071EF27F04AEF27F0809402
:104EE400025075EF27F01200066E000E076E89EF70
:104EF40027F0400E076EA2EF27F0140E076EA2EF04
:104F040027F0540E076EA2EF27F0A2EF27F0065009
:104F1400046E056A0550000AD8B493EF27F0A2EF97
:104F240027F00450010AD8B47BEF27F0030AD8B461
:104F34007FEF27F0010AD8B483EF27F0A2EF27F020
:104F4400075003247F0B800FF6EC16F012004CEC94
:104F54002DF0C5EC2CF00001B46F8B05D8B4B5EF7F
:104F640027F0B7EF27F0CAEF27F0030E8B19D8B458
:104F7400BEEF27F0C0EF27F0CAEF27F08B51D8A47B
:104F8400C6EF27F0C8EF27F0D2EF27F0CAEF27F0DB
:104F9400A20E456E210E466ED8EF27F0D8EF27F00B
:104FA400520E456E4F0E466ED8EF27F0120020EEDB
:104FB400EEF002D8EFEF27F00500FA6EDE50FD6E3A
:104FC400DE50FE6EF850FF6EFA50020E086E1E0E92
:104FD400096E7F0E0A6E000E1200C80E076E000ED8
:104FE400086E000E096E000E0A6E0CEC2DF0920E87
:104FF4000001686F570E696F860E6A6F430E6B6F00
:10500400BC0E456E530E466E08EF28F012000B6E70
:105014000BC001F0026A08EC2CF001C009F002C0D8
:105024000AF0000E0C6E0F0E0C641BEF28F01DEF3F
:1050340028F021EF28F038EF28F038EF28F00C5052
:105044000724D96E000E0820DA6EDF50016E0C5072
:1050540009243AEC2BF00C2A0F0E0C6434EF28F0E0
:1050640036EF28F021EF28F038EF28F01200096E0F
:1050740009C001F0026A08EC2CF001C007F002C07C
:1050840008F0000E0A6E0F0E0A644BEF28F04DEF85
:1050940028F051EF28F067EF28F067EF28F00A5066
:1050A4000524D96E000E0620DA6E0A50072402EC9D
:1050B4002DF0DF6E0A2A0F0E0A6463EF28F065EF05
:1050C40028F051EF28F067EF28F01200076E07C0B0
:1050D40001F0026A08EC2CF001C005F002C006F0F1
:1050E400000E086E0F0E08647AEF28F07CEF28F0AB
:1050F40080EF28F091EF28F091EF28F0000E016E78
:10510400085005243AEC2BF0082A0F0E08648DEFA2
:1051140028F08FEF28F080EF28F091EF28F01200AC
:10512400106E120E5E6099EF28F09BEF28F0B9EF35
:1051340028F0100E016E000E026E700E1DEC10F0C1
:105144005E50010D8C0EF324D96E000EF420DA6E3D
:1051540010C0DFFF5E2A5E50010D8C0EF324D96E61
:10516400000EF420DA6E000EDF6EB9EF28F06AEC60
:1051740016F012000D6ED00E096EFF0E0A6E07C0F7
:10518400D9FF08C0DAFFDECF01F0DDCF02F0000E58
:10519400046E0A0E036EDFEC2BF00D500B6E0C6ADE
:1051A40001500B2602500C2209500B260A500C22E7
:1051B40007C0D9FF08C0DAFF0BC0DEFF0CC0DDFF5B
:1051C4001200026E8A8C02C001F0013A0F0E011621
:1051D400014601468A500118C30B01188A6E8A9E43
:1051E400420EE82EFED700D08A8E8A8C02C001F0CF
:1051F4000F0E0116014601468A500118C30B01180F
:105204008A6E8A9E420EE82EFED700D08A8E120045
:105214003132334134353642373839432A30234426
:1052240012507250A458E857D050C644D4550000C8
:10523400202020202020202020202020202020206A
:10524400202020209E550000484A761BB45A0202B2
:105254002020202020202020202083EC2CF04CEC47
:105264002DF0496E5EEC2DF0495CD8B03CEF29F08E
:105274003EEF29F048EF29F0520E456E4F0E466E70
:1052840052EF29F052EF29F052EF29F062EC2DF0A1
:10529400460E456E480E466E52EF29F052EF29F045
:1052A4001200000E0B6E68EF29F009C001F00AC06D
:1052B40002F0000E046E0A0E036ED1EC19F001C068
:1052C40009F002C00AF00B2A68EF29F009500A100D
:1052D400D8A46FEF29F071EF29F057EF29F073EF9D
:1052E40029F00B5076EF29F0120004C006F005C037
:1052F40007F0040E086ED89007320632082E7DEFB0
:1053040029F0065074EC2CF0EAEC2CF0000E026E3E
:10531400010E016E54EC2BF00438F00B74EC2CF0FD
:10532400EAEC2CF0000E026E010E016E54EC2BF030
:10533400120020EEEEF002D8B1EF29F00500FA6E6B
:10534400DE50FD6EDE50FE6EF850FF6EFA50000E19
:10535400086E5E0E096E7D0E0A6E000E12000C0EB3
:1053640000016A6F380E6B6F47C045F048C046F0C5
:10537400BCEF29F01200000E0E6E2D0E0F6E310ED2
:10538400106E010E116E96EC2AF03CEC2DF066ECDA
:105394002DF0B30E016E000E026EB20E036E000EFF
:1053A400046E010E056E9CEC2BF0520E456E4F0EF2
:1053B400466EDDEF29F012001FEC2DF001500210B3
:1053C40003100410D8A4E9EF29F0EBEF29F0F5EF6E
:1053D40029F045C045F046C046F0FDEF29F0FDEF49
:1053E40029F0FDEF29F0BC0E456E530E466EFDEF1D
:1053F40029F0FDEF29F01200000E076E000E066E74
:10540400BAEC1AF0076E0750D8B40BEF2AF00DEF80
:105414002AF018EF2AF000018651D8A414EF2AF0DC
:1054240016EF2AF018EF2AF007C006F007C086F03E
:1054340006C087F01200B30E016E000E026E00016A
:10544400B451AFEC14F00009D8B42BEF2AF02DEFCF
:105454002AF035EF2AF0F20E456E540E466E3BEFFD
:105464002AF03BEF2AF03A0E456E540E466E3BEF9F
:105474002AF01200DEEC2CF0000E026E010E016E1A
:1054840054EC2BF0C00E74EC2CF0EAEC2CF0000E73
:10549400026E010E016E54EC2BF0600E74EC2CF0D5
:1054A400EAEC2CF0000E026E010E016E54EC2BF0AF
:1054B4001200000E126E100E126463EF2AF065EFF4
:1054C4002AF069EF2AF078EF2AF078EF2AF0B4ECAA
:1054D40020F040EC02F0122A100E126474EF2AF04D
:1054E40076EF2AF069EF2AF078EF2AF01200030E23
:1054F40000018B19D8A481EF2AF083EF2AF087EFFB
:105504002AF0020E8B6F87EF2AF05E0E456E520E64
:10551400466E95EF2AF095EF2AF0F20E456E540E82
:10552400466E95EF2AF0120093809382C650F00BDA
:105534000809C66E400E016E4B0E026E4C0E036ED1
:10554400000E046E0EC005F00FC006F010C007F088
:1055540011C008F010EC21F00104C86EC78EC68A91
:1055640012001FEC2DF00150021003100410D8A4F7
:10557400BEEF2AF0C0EF2AF0C8EF2AF0F20E456E13
:10558400540E466ECEEF2AF0CEEF2AF0660E456E2C
:10559400550E466ECEEF2AF01200C168939493968E
:1055A4009398939A939C939E8A8E000E026E050E96
:1055B400016E54EC2BF0280EF6EC16F00C0EF6EC03
:1055C40016F0010EF6EC16F0020EF6EC16F01200D0
:1055D400056E000E046E05C006F0F9EF2AF0000E09
:1055E400016E06503AEC2BF0062AF9EF2AF003502C
:1055F400065CD8A000EF2BF002EF2BF0F1EF2AF0BD
:1056040003C004F01200FD0ECF6E8F0ECE6E0001AB
:105614007051711172117311D8B413EF2BF015EF8F
:105624002BF01CEF2BF07007000E715B725B735B49
:105634001FEF2BF0CD901FEF2BF0120002D82EEFAE
:105644002BF005000001FA6EEA51FD6EEB51FE6E7F
:10565400F850FF6EFA501200E60E00016A6F380E21
:105664006B6FE60E456E380E466E39EF2BF0120066
:10567400026EF29E02C0A9FF01C0A8FFA69EA69CCE
:10568400A684550EA76EAA0EA76EA6824AEF2BF02B
:10569400A6B24FEF2BF051EF2BF04AEF2BF0A6946C
:1056A400F28E120061EF2BF0070E036E7D0EE82ED2
:1056B400FED7032EFCD700F00106D8A00206015045
:1056C4000210D8A468EF2BF06AEF2BF056EF2BF002
:1056D4006CEF2BF012000600F29E9EA074EF2BF0EC
:1056E40076EF2BF082EF2BF09DA07BEF2BF07DEF7C
:1056F4002BF082EF2BF09E9005EC2BF082EF2BF039
:10570400F28E5F92110008C0D9FF09C0DAFFDECF24
:1057140001F0DDCF02F0000E046E0A0E036E67EC9A
:1057240024F008C0D9FF09C0DAFF01C0DEFF02C0BF
:10573400DDFF1200C16801C076F002C077F003C03B
:1057440074F004C075F005C084F08096929680943D
:10575400929480909290809292828094809080869D
:105764001200AEC001F0AFC002F036EC2DF0280EEE
:1057740000016A6F470E6B6F7A0E606F530E616F94
:10578400920E456E570E466EC8EF2BF0120020EEB7
:10579400F2F002D8D8EF2BF00500FA6EDE50FD6E61
:1057A400DE50FE6EF850FF6EFA50120047C045F00E
:1057B40048C046F0DEEF2BF0120001500302F3CF95
:1057C40005F0F4CF06F001500402F350062602500F
:1057D4000302F350062605C001F006C002F0F3EF01
:1057E4002BF012000A6E0AC001F0026A08EC2CF0D9
:1057F40001C008F002C009F00550082402EC2DF0A5
:1058040006C0D9FF07C0DAFFDF6E120001C003F043
:1058140002C004F0033A043AF00E041603500F0BCE
:105824000412F00E031603C001F004C002F01BEFD3
:105834002CF01200000E00018A6FB05192EC28F097
:105844002C0E00016A6F5A0E6B6F920E456E570E46
:10585400466E2DEF2CF01200000E00018A6FB0513D
:10586400DBEC26F02C0E00016A6F5A0E6B6F920E61
:10587400456E570E466E3FEF2CF012008DC003F0BC
:10588400046A0350046E036A00018C510326000E5F
:10589400042203C001F004C002F051EF2CF0120006
:1058A4000B6E0BC001F0026A08EC2CF001C009F089
:1058B40002C00AF008C001F0075009243AEC2BF0AA
:1058C40012003CEC2AF01BC004F01CC005F077EC7D
:1058D40029F0F6EC2CF0000E026E010E016E54EC71
:1058E4002BF01200016E01C0C9FF79EF2CF0C7B094
:1058F4007EEF2CF080EF2CF079EF2CF082EF2CF07F
:1059040012005E500001F45DD8B08BEF2CF08DEFE7
:105914002CF090EF2CF0F42B90EF2CF01200CD92A1
:10592400300ECD12CD84FD0ECF6E8F0ECE6ECD9C7B
:105934009D80F28CF28E1200020E0001F565A5EF37
:105944002CF0A7EF2CF0AAEF2CF0F507AAEF2CF01F
:105954001200110E5E64B1EF2CF0B4EF2CF0010EC6
:10596400B5EF2CF0000EB7EF2CF01200026E000E13
:10597400036E4CEC2DF00224C5EC2CF0036E0350A6
:10598400C4EF2CF01200016E0150010D8C0EF324B3
:10599400D96E000EF420DA6EDF50D1EF2CF0120035
:1059A400260E00016A6F440E6B6F920E456E570E01
:1059B400466EDDEF2CF01200C580E1EF2CF09EA6C0
:1059C400E6EF2CF0E8EF2CF0E1EF2CF09E961200BD
:1059D400ECEF2CF0C5BCF1EF2CF0F3EF2CF0ECEF76
:1059E4002CF0F5EF2CF01200C584F9EF2CF09EA6F4
:1059F400FEEF2CF000EF2DF0F9EF2CF09E96120044
:105A0400016E01C0A9FFA69EA69CA680A8500BEF1C
:105A14002DF0120007C070F008C071F009C072F0D8
:105A24000AC073F0CD80120040EC02F00C0E456EFB
:105A3400380E466E1EEF2DF0120070C001F071C0DA
:105A440002F072C003F073C004F01200500E456EF1
:105A54005A0E466E2EEF2DF012008C0E016E000EC3
:105A6400026E35EF2DF0120001C08CF002500001DF
:105A74008D6F1200000E0001796F000E786F120016
:105A8400000E836EF00E956E120078C001F079C09E
:105A940002F012000001F45150EF2DF01200000149
:105AA400875155EF2DF01200120E59EF2DF0120010
:105AB400010EF6EC16F012005E5061EF2DF01200AC
:105AC4000001784B792B1200020E0001F46F1200D2
:075AD400809680861200029B
